{
	"contracts/RewardDistributor.sol": {
		"RewardDistributor": {
			"abi": [
				{
					"inputs": [
						{
							"internalType": "address",
							"name": "_token",
							"type": "address"
						},
						{
							"internalType": "address",
							"name": "_policy",
							"type": "address"
						}
					],
					"stateMutability": "nonpayable",
					"type": "constructor"
				},
				{
					"inputs": [],
					"name": "admin",
					"outputs": [
						{
							"internalType": "address",
							"name": "",
							"type": "address"
						}
					],
					"stateMutability": "view",
					"type": "function"
				},
				{
					"inputs": [
						{
							"internalType": "address",
							"name": "recipient",
							"type": "address"
						},
						{
							"internalType": "string",
							"name": "rule",
							"type": "string"
						}
					],
					"name": "distributeReward",
					"outputs": [],
					"stateMutability": "nonpayable",
					"type": "function"
				},
				{
					"inputs": [],
					"name": "policy",
					"outputs": [
						{
							"internalType": "contract IRewardPolicy",
							"name": "",
							"type": "address"
						}
					],
					"stateMutability": "view",
					"type": "function"
				},
				{
					"inputs": [],
					"name": "token",
					"outputs": [
						{
							"internalType": "contract IERC20",
							"name": "",
							"type": "address"
						}
					],
					"stateMutability": "view",
					"type": "function"
				}
			],
			"devdoc": {
				"kind": "dev",
				"methods": {},
				"version": 1
			},
			"evm": {
				"assembly": "    /* \"contracts/RewardDistributor.sol\":234:768  contract RewardDistributor {... */\n  mstore(0x40, 0x80)\n    /* \"contracts/RewardDistributor.sol\":357:514  constructor(address _token, address _policy) {... */\n  callvalue\n  dup1\n  iszero\n  tag_1\n  jumpi\n  revert(0x00, 0x00)\ntag_1:\n  pop\n  mload(0x40)\n  sub(codesize, bytecodeSize)\n  dup1\n  bytecodeSize\n  dup4\n  codecopy\n  dup2\n  dup2\n  add\n  0x40\n  mstore\n  dup2\n  add\n  swap1\n  tag_2\n  swap2\n  swap1\n  tag_3\n  jump\t// in\ntag_2:\n    /* \"contracts/RewardDistributor.sol\":428:434  _token */\n  dup2\n    /* \"contracts/RewardDistributor.sol\":413:418  token */\n  0x00\n  0x00\n    /* \"contracts/RewardDistributor.sol\":413:435  token = IERC20(_token) */\n  0x0100\n  exp\n  dup2\n  sload\n  dup2\n  0xffffffffffffffffffffffffffffffffffffffff\n  mul\n  not\n  and\n  swap1\n  dup4\n  0xffffffffffffffffffffffffffffffffffffffff\n  and\n  mul\n  or\n  swap1\n  sstore\n  pop\n    /* \"contracts/RewardDistributor.sol\":469:476  _policy */\n  dup1\n    /* \"contracts/RewardDistributor.sol\":446:452  policy */\n  0x01\n  0x00\n    /* \"contracts/RewardDistributor.sol\":446:477  policy = IRewardPolicy(_policy) */\n  0x0100\n  exp\n  dup2\n  sload\n  dup2\n  0xffffffffffffffffffffffffffffffffffffffff\n  mul\n  not\n  and\n  swap1\n  dup4\n  0xffffffffffffffffffffffffffffffffffffffff\n  and\n  mul\n  or\n  swap1\n  sstore\n  pop\n    /* \"contracts/RewardDistributor.sol\":496:506  msg.sender */\n  caller\n    /* \"contracts/RewardDistributor.sol\":488:493  admin */\n  0x02\n  0x00\n    /* \"contracts/RewardDistributor.sol\":488:506  admin = msg.sender */\n  0x0100\n  exp\n  dup2\n  sload\n  dup2\n  0xffffffffffffffffffffffffffffffffffffffff\n  mul\n  not\n  and\n  swap1\n  dup4\n  0xffffffffffffffffffffffffffffffffffffffff\n  and\n  mul\n  or\n  swap1\n  sstore\n  pop\n    /* \"contracts/RewardDistributor.sol\":357:514  constructor(address _token, address _policy) {... */\n  pop\n  pop\n    /* \"contracts/RewardDistributor.sol\":234:768  contract RewardDistributor {... */\n  jump(tag_6)\n    /* \"#utility.yul\":88:205   */\ntag_8:\n    /* \"#utility.yul\":197:198   */\n  0x00\n    /* \"#utility.yul\":194:195   */\n  0x00\n    /* \"#utility.yul\":187:199   */\n  revert\n    /* \"#utility.yul\":334:460   */\ntag_10:\n    /* \"#utility.yul\":371:378   */\n  0x00\n    /* \"#utility.yul\":411:453   */\n  0xffffffffffffffffffffffffffffffffffffffff\n    /* \"#utility.yul\":404:409   */\n  dup3\n    /* \"#utility.yul\":400:454   */\n  and\n    /* \"#utility.yul\":389:454   */\n  swap1\n  pop\n    /* \"#utility.yul\":334:460   */\n  swap2\n  swap1\n  pop\n  jump\t// out\n    /* \"#utility.yul\":466:562   */\ntag_11:\n    /* \"#utility.yul\":503:510   */\n  0x00\n    /* \"#utility.yul\":532:556   */\n  tag_20\n    /* \"#utility.yul\":550:555   */\n  dup3\n    /* \"#utility.yul\":532:556   */\n  tag_10\n  jump\t// in\ntag_20:\n    /* \"#utility.yul\":521:556   */\n  swap1\n  pop\n    /* \"#utility.yul\":466:562   */\n  swap2\n  swap1\n  pop\n  jump\t// out\n    /* \"#utility.yul\":568:690   */\ntag_12:\n    /* \"#utility.yul\":641:665   */\n  tag_22\n    /* \"#utility.yul\":659:664   */\n  dup2\n    /* \"#utility.yul\":641:665   */\n  tag_11\n  jump\t// in\ntag_22:\n    /* \"#utility.yul\":634:639   */\n  dup2\n    /* \"#utility.yul\":631:666   */\n  eq\n    /* \"#utility.yul\":621:684   */\n  tag_23\n  jumpi\n    /* \"#utility.yul\":680:681   */\n  0x00\n    /* \"#utility.yul\":677:678   */\n  0x00\n    /* \"#utility.yul\":670:682   */\n  revert\n    /* \"#utility.yul\":621:684   */\ntag_23:\n    /* \"#utility.yul\":568:690   */\n  pop\n  jump\t// out\n    /* \"#utility.yul\":696:839   */\ntag_13:\n    /* \"#utility.yul\":753:758   */\n  0x00\n    /* \"#utility.yul\":784:790   */\n  dup2\n    /* \"#utility.yul\":778:791   */\n  mload\n    /* \"#utility.yul\":769:791   */\n  swap1\n  pop\n    /* \"#utility.yul\":800:833   */\n  tag_25\n    /* \"#utility.yul\":827:832   */\n  dup2\n    /* \"#utility.yul\":800:833   */\n  tag_12\n  jump\t// in\ntag_25:\n    /* \"#utility.yul\":696:839   */\n  swap3\n  swap2\n  pop\n  pop\n  jump\t// out\n    /* \"#utility.yul\":845:1352   */\ntag_3:\n    /* \"#utility.yul\":924:930   */\n  0x00\n    /* \"#utility.yul\":932:938   */\n  0x00\n    /* \"#utility.yul\":981:983   */\n  0x40\n    /* \"#utility.yul\":969:978   */\n  dup4\n    /* \"#utility.yul\":960:967   */\n  dup6\n    /* \"#utility.yul\":956:979   */\n  sub\n    /* \"#utility.yul\":952:984   */\n  slt\n    /* \"#utility.yul\":949:1068   */\n  iszero\n  tag_27\n  jumpi\n    /* \"#utility.yul\":987:1066   */\n  tag_28\n  tag_8\n  jump\t// in\ntag_28:\n    /* \"#utility.yul\":949:1068   */\ntag_27:\n    /* \"#utility.yul\":1107:1108   */\n  0x00\n    /* \"#utility.yul\":1132:1196   */\n  tag_29\n    /* \"#utility.yul\":1188:1195   */\n  dup6\n    /* \"#utility.yul\":1179:1185   */\n  dup3\n    /* \"#utility.yul\":1168:1177   */\n  dup7\n    /* \"#utility.yul\":1164:1186   */\n  add\n    /* \"#utility.yul\":1132:1196   */\n  tag_13\n  jump\t// in\ntag_29:\n    /* \"#utility.yul\":1122:1196   */\n  swap3\n  pop\n    /* \"#utility.yul\":1078:1206   */\n  pop\n    /* \"#utility.yul\":1245:1247   */\n  0x20\n    /* \"#utility.yul\":1271:1335   */\n  tag_30\n    /* \"#utility.yul\":1327:1334   */\n  dup6\n    /* \"#utility.yul\":1318:1324   */\n  dup3\n    /* \"#utility.yul\":1307:1316   */\n  dup7\n    /* \"#utility.yul\":1303:1325   */\n  add\n    /* \"#utility.yul\":1271:1335   */\n  tag_13\n  jump\t// in\ntag_30:\n    /* \"#utility.yul\":1261:1335   */\n  swap2\n  pop\n    /* \"#utility.yul\":1216:1345   */\n  pop\n    /* \"#utility.yul\":845:1352   */\n  swap3\n  pop\n  swap3\n  swap1\n  pop\n  jump\t// out\n    /* \"contracts/RewardDistributor.sol\":234:768  contract RewardDistributor {... */\ntag_6:\n  dataSize(sub_0)\n  dup1\n  dataOffset(sub_0)\n  0x00\n  codecopy\n  0x00\n  return\nstop\n\nsub_0: assembly {\n        /* \"contracts/RewardDistributor.sol\":234:768  contract RewardDistributor {... */\n      mstore(0x40, 0x80)\n      callvalue\n      dup1\n      iszero\n      tag_1\n      jumpi\n      revert(0x00, 0x00)\n    tag_1:\n      pop\n      jumpi(tag_2, lt(calldatasize, 0x04))\n      shr(0xe0, calldataload(0x00))\n      dup1\n      0x0505c8c9\n      eq\n      tag_3\n      jumpi\n      dup1\n      0x6c4be8ff\n      eq\n      tag_4\n      jumpi\n      dup1\n      0xf851a440\n      eq\n      tag_5\n      jumpi\n      dup1\n      0xfc0c546a\n      eq\n      tag_6\n      jumpi\n    tag_2:\n      revert(0x00, 0x00)\n        /* \"contracts/RewardDistributor.sol\":294:321  IRewardPolicy public policy */\n    tag_3:\n      tag_7\n      tag_8\n      jump\t// in\n    tag_7:\n      mload(0x40)\n      tag_9\n      swap2\n      swap1\n      tag_10\n      jump\t// in\n    tag_9:\n      mload(0x40)\n      dup1\n      swap2\n      sub\n      swap1\n      return\n        /* \"contracts/RewardDistributor.sol\":522:765  function distributeReward(address recipient, string memory rule) public {... */\n    tag_4:\n      tag_11\n      0x04\n      dup1\n      calldatasize\n      sub\n      dup2\n      add\n      swap1\n      tag_12\n      swap2\n      swap1\n      tag_13\n      jump\t// in\n    tag_12:\n      tag_14\n      jump\t// in\n    tag_11:\n      stop\n        /* \"contracts/RewardDistributor.sol\":328:348  address public admin */\n    tag_5:\n      tag_15\n      tag_16\n      jump\t// in\n    tag_15:\n      mload(0x40)\n      tag_17\n      swap2\n      swap1\n      tag_18\n      jump\t// in\n    tag_17:\n      mload(0x40)\n      dup1\n      swap2\n      sub\n      swap1\n      return\n        /* \"contracts/RewardDistributor.sol\":268:287  IERC20 public token */\n    tag_6:\n      tag_19\n      tag_20\n      jump\t// in\n    tag_19:\n      mload(0x40)\n      tag_21\n      swap2\n      swap1\n      tag_22\n      jump\t// in\n    tag_21:\n      mload(0x40)\n      dup1\n      swap2\n      sub\n      swap1\n      return\n        /* \"contracts/RewardDistributor.sol\":294:321  IRewardPolicy public policy */\n    tag_8:\n      0x01\n      0x00\n      swap1\n      sload\n      swap1\n      0x0100\n      exp\n      swap1\n      div\n      0xffffffffffffffffffffffffffffffffffffffff\n      and\n      dup2\n      jump\t// out\n        /* \"contracts/RewardDistributor.sol\":522:765  function distributeReward(address recipient, string memory rule) public {... */\n    tag_14:\n        /* \"contracts/RewardDistributor.sol\":627:632  admin */\n      0x02\n      0x00\n      swap1\n      sload\n      swap1\n      0x0100\n      exp\n      swap1\n      div\n      0xffffffffffffffffffffffffffffffffffffffff\n      and\n        /* \"contracts/RewardDistributor.sol\":613:632  msg.sender == admin */\n      0xffffffffffffffffffffffffffffffffffffffff\n      and\n        /* \"contracts/RewardDistributor.sol\":613:623  msg.sender */\n      caller\n        /* \"contracts/RewardDistributor.sol\":613:632  msg.sender == admin */\n      0xffffffffffffffffffffffffffffffffffffffff\n      and\n      eq\n        /* \"contracts/RewardDistributor.sol\":605:647  require(msg.sender == admin, \"Only admin\") */\n      tag_24\n      jumpi\n      mload(0x40)\n      0x08c379a000000000000000000000000000000000000000000000000000000000\n      dup2\n      mstore\n      0x04\n      add\n      tag_25\n      swap1\n      tag_26\n      jump\t// in\n    tag_25:\n      mload(0x40)\n      dup1\n      swap2\n      sub\n      swap1\n      revert\n    tag_24:\n        /* \"contracts/RewardDistributor.sol\":658:672  uint256 reward */\n      0x00\n        /* \"contracts/RewardDistributor.sol\":705:713  10 ** 18 */\n      0x0de0b6b3a7640000\n        /* \"contracts/RewardDistributor.sol\":675:681  policy */\n      0x01\n      0x00\n      swap1\n      sload\n      swap1\n      0x0100\n      exp\n      swap1\n      div\n      0xffffffffffffffffffffffffffffffffffffffff\n      and\n        /* \"contracts/RewardDistributor.sol\":675:696  policy.getRewardValue */\n      0xffffffffffffffffffffffffffffffffffffffff\n      and\n      0x7e564aeb\n        /* \"contracts/RewardDistributor.sol\":697:701  rule */\n      dup5\n        /* \"contracts/RewardDistributor.sol\":675:702  policy.getRewardValue(rule) */\n      mload(0x40)\n      dup3\n      0xffffffff\n      and\n      0xe0\n      shl\n      dup2\n      mstore\n      0x04\n      add\n      tag_27\n      swap2\n      swap1\n      tag_28\n      jump\t// in\n    tag_27:\n      0x20\n      mload(0x40)\n      dup1\n      dup4\n      sub\n      dup2\n      dup7\n      gas\n      staticcall\n      iszero\n      dup1\n      iszero\n      tag_30\n      jumpi\n      returndatacopy(0x00, 0x00, returndatasize)\n      revert(0x00, returndatasize)\n    tag_30:\n      pop\n      pop\n      pop\n      pop\n      mload(0x40)\n      returndatasize\n      not(0x1f)\n      0x1f\n      dup3\n      add\n      and\n      dup3\n      add\n      dup1\n      0x40\n      mstore\n      pop\n      dup2\n      add\n      swap1\n      tag_31\n      swap2\n      swap1\n      tag_32\n      jump\t// in\n    tag_31:\n        /* \"contracts/RewardDistributor.sol\":675:713  policy.getRewardValue(rule) * 10 ** 18 */\n      tag_33\n      swap2\n      swap1\n      tag_34\n      jump\t// in\n    tag_33:\n        /* \"contracts/RewardDistributor.sol\":658:713  uint256 reward = policy.getRewardValue(rule) * 10 ** 18 */\n      swap1\n      pop\n        /* \"contracts/RewardDistributor.sol\":724:729  token */\n      0x00\n      0x00\n      swap1\n      sload\n      swap1\n      0x0100\n      exp\n      swap1\n      div\n      0xffffffffffffffffffffffffffffffffffffffff\n      and\n        /* \"contracts/RewardDistributor.sol\":724:738  token.transfer */\n      0xffffffffffffffffffffffffffffffffffffffff\n      and\n      0xa9059cbb\n        /* \"contracts/RewardDistributor.sol\":739:748  recipient */\n      dup5\n        /* \"contracts/RewardDistributor.sol\":750:756  reward */\n      dup4\n        /* \"contracts/RewardDistributor.sol\":724:757  token.transfer(recipient, reward) */\n      mload(0x40)\n      dup4\n      0xffffffff\n      and\n      0xe0\n      shl\n      dup2\n      mstore\n      0x04\n      add\n      tag_35\n      swap3\n      swap2\n      swap1\n      tag_36\n      jump\t// in\n    tag_35:\n      0x20\n      mload(0x40)\n      dup1\n      dup4\n      sub\n      dup2\n      0x00\n      dup8\n      gas\n      call\n      iszero\n      dup1\n      iszero\n      tag_38\n      jumpi\n      returndatacopy(0x00, 0x00, returndatasize)\n      revert(0x00, returndatasize)\n    tag_38:\n      pop\n      pop\n      pop\n      pop\n      mload(0x40)\n      returndatasize\n      not(0x1f)\n      0x1f\n      dup3\n      add\n      and\n      dup3\n      add\n      dup1\n      0x40\n      mstore\n      pop\n      dup2\n      add\n      swap1\n      tag_39\n      swap2\n      swap1\n      tag_40\n      jump\t// in\n    tag_39:\n      pop\n        /* \"contracts/RewardDistributor.sol\":594:765  {... */\n      pop\n        /* \"contracts/RewardDistributor.sol\":522:765  function distributeReward(address recipient, string memory rule) public {... */\n      pop\n      pop\n      jump\t// out\n        /* \"contracts/RewardDistributor.sol\":328:348  address public admin */\n    tag_16:\n      0x02\n      0x00\n      swap1\n      sload\n      swap1\n      0x0100\n      exp\n      swap1\n      div\n      0xffffffffffffffffffffffffffffffffffffffff\n      and\n      dup2\n      jump\t// out\n        /* \"contracts/RewardDistributor.sol\":268:287  IERC20 public token */\n    tag_20:\n      0x00\n      0x00\n      swap1\n      sload\n      swap1\n      0x0100\n      exp\n      swap1\n      div\n      0xffffffffffffffffffffffffffffffffffffffff\n      and\n      dup2\n      jump\t// out\n        /* \"#utility.yul\":7:133   */\n    tag_41:\n        /* \"#utility.yul\":44:51   */\n      0x00\n        /* \"#utility.yul\":84:126   */\n      0xffffffffffffffffffffffffffffffffffffffff\n        /* \"#utility.yul\":77:82   */\n      dup3\n        /* \"#utility.yul\":73:127   */\n      and\n        /* \"#utility.yul\":62:127   */\n      swap1\n      pop\n        /* \"#utility.yul\":7:133   */\n      swap2\n      swap1\n      pop\n      jump\t// out\n        /* \"#utility.yul\":139:199   */\n    tag_42:\n        /* \"#utility.yul\":167:170   */\n      0x00\n        /* \"#utility.yul\":188:193   */\n      dup2\n        /* \"#utility.yul\":181:193   */\n      swap1\n      pop\n        /* \"#utility.yul\":139:199   */\n      swap2\n      swap1\n      pop\n      jump\t// out\n        /* \"#utility.yul\":205:347   */\n    tag_43:\n        /* \"#utility.yul\":255:264   */\n      0x00\n        /* \"#utility.yul\":288:341   */\n      tag_84\n        /* \"#utility.yul\":306:340   */\n      tag_85\n        /* \"#utility.yul\":315:339   */\n      tag_86\n        /* \"#utility.yul\":333:338   */\n      dup5\n        /* \"#utility.yul\":315:339   */\n      tag_41\n      jump\t// in\n    tag_86:\n        /* \"#utility.yul\":306:340   */\n      tag_42\n      jump\t// in\n    tag_85:\n        /* \"#utility.yul\":288:341   */\n      tag_41\n      jump\t// in\n    tag_84:\n        /* \"#utility.yul\":275:341   */\n      swap1\n      pop\n        /* \"#utility.yul\":205:347   */\n      swap2\n      swap1\n      pop\n      jump\t// out\n        /* \"#utility.yul\":353:479   */\n    tag_44:\n        /* \"#utility.yul\":403:412   */\n      0x00\n        /* \"#utility.yul\":436:473   */\n      tag_88\n        /* \"#utility.yul\":467:472   */\n      dup3\n        /* \"#utility.yul\":436:473   */\n      tag_43\n      jump\t// in\n    tag_88:\n        /* \"#utility.yul\":423:473   */\n      swap1\n      pop\n        /* \"#utility.yul\":353:479   */\n      swap2\n      swap1\n      pop\n      jump\t// out\n        /* \"#utility.yul\":485:631   */\n    tag_45:\n        /* \"#utility.yul\":555:564   */\n      0x00\n        /* \"#utility.yul\":588:625   */\n      tag_90\n        /* \"#utility.yul\":619:624   */\n      dup3\n        /* \"#utility.yul\":588:625   */\n      tag_44\n      jump\t// in\n    tag_90:\n        /* \"#utility.yul\":575:625   */\n      swap1\n      pop\n        /* \"#utility.yul\":485:631   */\n      swap2\n      swap1\n      pop\n      jump\t// out\n        /* \"#utility.yul\":637:808   */\n    tag_46:\n        /* \"#utility.yul\":744:801   */\n      tag_92\n        /* \"#utility.yul\":795:800   */\n      dup2\n        /* \"#utility.yul\":744:801   */\n      tag_45\n      jump\t// in\n    tag_92:\n        /* \"#utility.yul\":739:742   */\n      dup3\n        /* \"#utility.yul\":732:802   */\n      mstore\n        /* \"#utility.yul\":637:808   */\n      pop\n      pop\n      jump\t// out\n        /* \"#utility.yul\":814:1076   */\n    tag_10:\n        /* \"#utility.yul\":927:931   */\n      0x00\n        /* \"#utility.yul\":965:967   */\n      0x20\n        /* \"#utility.yul\":954:963   */\n      dup3\n        /* \"#utility.yul\":950:968   */\n      add\n        /* \"#utility.yul\":942:968   */\n      swap1\n      pop\n        /* \"#utility.yul\":978:1069   */\n      tag_94\n        /* \"#utility.yul\":1066:1067   */\n      0x00\n        /* \"#utility.yul\":1055:1064   */\n      dup4\n        /* \"#utility.yul\":1051:1068   */\n      add\n        /* \"#utility.yul\":1042:1048   */\n      dup5\n        /* \"#utility.yul\":978:1069   */\n      tag_46\n      jump\t// in\n    tag_94:\n        /* \"#utility.yul\":814:1076   */\n      swap3\n      swap2\n      pop\n      pop\n      jump\t// out\n        /* \"#utility.yul\":1082:1157   */\n    tag_47:\n        /* \"#utility.yul\":1115:1121   */\n      0x00\n        /* \"#utility.yul\":1148:1150   */\n      0x40\n        /* \"#utility.yul\":1142:1151   */\n      mload\n        /* \"#utility.yul\":1132:1151   */\n      swap1\n      pop\n        /* \"#utility.yul\":1082:1157   */\n      swap1\n      jump\t// out\n        /* \"#utility.yul\":1163:1280   */\n    tag_48:\n        /* \"#utility.yul\":1272:1273   */\n      0x00\n        /* \"#utility.yul\":1269:1270   */\n      0x00\n        /* \"#utility.yul\":1262:1274   */\n      revert\n        /* \"#utility.yul\":1286:1403   */\n    tag_49:\n        /* \"#utility.yul\":1395:1396   */\n      0x00\n        /* \"#utility.yul\":1392:1393   */\n      0x00\n        /* \"#utility.yul\":1385:1397   */\n      revert\n        /* \"#utility.yul\":1409:1505   */\n    tag_50:\n        /* \"#utility.yul\":1446:1453   */\n      0x00\n        /* \"#utility.yul\":1475:1499   */\n      tag_99\n        /* \"#utility.yul\":1493:1498   */\n      dup3\n        /* \"#utility.yul\":1475:1499   */\n      tag_41\n      jump\t// in\n    tag_99:\n        /* \"#utility.yul\":1464:1499   */\n      swap1\n      pop\n        /* \"#utility.yul\":1409:1505   */\n      swap2\n      swap1\n      pop\n      jump\t// out\n        /* \"#utility.yul\":1511:1633   */\n    tag_51:\n        /* \"#utility.yul\":1584:1608   */\n      tag_101\n        /* \"#utility.yul\":1602:1607   */\n      dup2\n        /* \"#utility.yul\":1584:1608   */\n      tag_50\n      jump\t// in\n    tag_101:\n        /* \"#utility.yul\":1577:1582   */\n      dup2\n        /* \"#utility.yul\":1574:1609   */\n      eq\n        /* \"#utility.yul\":1564:1627   */\n      tag_102\n      jumpi\n        /* \"#utility.yul\":1623:1624   */\n      0x00\n        /* \"#utility.yul\":1620:1621   */\n      0x00\n        /* \"#utility.yul\":1613:1625   */\n      revert\n        /* \"#utility.yul\":1564:1627   */\n    tag_102:\n        /* \"#utility.yul\":1511:1633   */\n      pop\n      jump\t// out\n        /* \"#utility.yul\":1639:1778   */\n    tag_52:\n        /* \"#utility.yul\":1685:1690   */\n      0x00\n        /* \"#utility.yul\":1723:1729   */\n      dup2\n        /* \"#utility.yul\":1710:1730   */\n      calldataload\n        /* \"#utility.yul\":1701:1730   */\n      swap1\n      pop\n        /* \"#utility.yul\":1739:1772   */\n      tag_104\n        /* \"#utility.yul\":1766:1771   */\n      dup2\n        /* \"#utility.yul\":1739:1772   */\n      tag_51\n      jump\t// in\n    tag_104:\n        /* \"#utility.yul\":1639:1778   */\n      swap3\n      swap2\n      pop\n      pop\n      jump\t// out\n        /* \"#utility.yul\":1784:1901   */\n    tag_53:\n        /* \"#utility.yul\":1893:1894   */\n      0x00\n        /* \"#utility.yul\":1890:1891   */\n      0x00\n        /* \"#utility.yul\":1883:1895   */\n      revert\n        /* \"#utility.yul\":1907:2024   */\n    tag_54:\n        /* \"#utility.yul\":2016:2017   */\n      0x00\n        /* \"#utility.yul\":2013:2014   */\n      0x00\n        /* \"#utility.yul\":2006:2018   */\n      revert\n        /* \"#utility.yul\":2030:2132   */\n    tag_55:\n        /* \"#utility.yul\":2071:2077   */\n      0x00\n        /* \"#utility.yul\":2122:2124   */\n      0x1f\n        /* \"#utility.yul\":2118:2125   */\n      not\n        /* \"#utility.yul\":2113:2115   */\n      0x1f\n        /* \"#utility.yul\":2106:2111   */\n      dup4\n        /* \"#utility.yul\":2102:2116   */\n      add\n        /* \"#utility.yul\":2098:2126   */\n      and\n        /* \"#utility.yul\":2088:2126   */\n      swap1\n      pop\n        /* \"#utility.yul\":2030:2132   */\n      swap2\n      swap1\n      pop\n      jump\t// out\n        /* \"#utility.yul\":2138:2318   */\n    tag_56:\n        /* \"#utility.yul\":2186:2263   */\n      0x4e487b7100000000000000000000000000000000000000000000000000000000\n        /* \"#utility.yul\":2183:2184   */\n      0x00\n        /* \"#utility.yul\":2176:2264   */\n      mstore\n        /* \"#utility.yul\":2283:2287   */\n      0x41\n        /* \"#utility.yul\":2280:2281   */\n      0x04\n        /* \"#utility.yul\":2273:2288   */\n      mstore\n        /* \"#utility.yul\":2307:2311   */\n      0x24\n        /* \"#utility.yul\":2304:2305   */\n      0x00\n        /* \"#utility.yul\":2297:2312   */\n      revert\n        /* \"#utility.yul\":2324:2605   */\n    tag_57:\n        /* \"#utility.yul\":2407:2434   */\n      tag_110\n        /* \"#utility.yul\":2429:2433   */\n      dup3\n        /* \"#utility.yul\":2407:2434   */\n      tag_55\n      jump\t// in\n    tag_110:\n        /* \"#utility.yul\":2399:2405   */\n      dup2\n        /* \"#utility.yul\":2395:2435   */\n      add\n        /* \"#utility.yul\":2537:2543   */\n      dup2\n        /* \"#utility.yul\":2525:2535   */\n      dup2\n        /* \"#utility.yul\":2522:2544   */\n      lt\n        /* \"#utility.yul\":2501:2519   */\n      0xffffffffffffffff\n        /* \"#utility.yul\":2489:2499   */\n      dup3\n        /* \"#utility.yul\":2486:2520   */\n      gt\n        /* \"#utility.yul\":2483:2545   */\n      or\n        /* \"#utility.yul\":2480:2568   */\n      iszero\n      tag_111\n      jumpi\n        /* \"#utility.yul\":2548:2566   */\n      tag_112\n      tag_56\n      jump\t// in\n    tag_112:\n        /* \"#utility.yul\":2480:2568   */\n    tag_111:\n        /* \"#utility.yul\":2588:2598   */\n      dup1\n        /* \"#utility.yul\":2584:2586   */\n      0x40\n        /* \"#utility.yul\":2577:2599   */\n      mstore\n        /* \"#utility.yul\":2367:2605   */\n      pop\n        /* \"#utility.yul\":2324:2605   */\n      pop\n      pop\n      jump\t// out\n        /* \"#utility.yul\":2611:2740   */\n    tag_58:\n        /* \"#utility.yul\":2645:2651   */\n      0x00\n        /* \"#utility.yul\":2672:2692   */\n      tag_114\n      tag_47\n      jump\t// in\n    tag_114:\n        /* \"#utility.yul\":2662:2692   */\n      swap1\n      pop\n        /* \"#utility.yul\":2701:2734   */\n      tag_115\n        /* \"#utility.yul\":2729:2733   */\n      dup3\n        /* \"#utility.yul\":2721:2727   */\n      dup3\n        /* \"#utility.yul\":2701:2734   */\n      tag_57\n      jump\t// in\n    tag_115:\n        /* \"#utility.yul\":2611:2740   */\n      swap2\n      swap1\n      pop\n      jump\t// out\n        /* \"#utility.yul\":2746:3054   */\n    tag_59:\n        /* \"#utility.yul\":2808:2812   */\n      0x00\n        /* \"#utility.yul\":2898:2916   */\n      0xffffffffffffffff\n        /* \"#utility.yul\":2890:2896   */\n      dup3\n        /* \"#utility.yul\":2887:2917   */\n      gt\n        /* \"#utility.yul\":2884:2940   */\n      iszero\n      tag_117\n      jumpi\n        /* \"#utility.yul\":2920:2938   */\n      tag_118\n      tag_56\n      jump\t// in\n    tag_118:\n        /* \"#utility.yul\":2884:2940   */\n    tag_117:\n        /* \"#utility.yul\":2958:2987   */\n      tag_119\n        /* \"#utility.yul\":2980:2986   */\n      dup3\n        /* \"#utility.yul\":2958:2987   */\n      tag_55\n      jump\t// in\n    tag_119:\n        /* \"#utility.yul\":2950:2987   */\n      swap1\n      pop\n        /* \"#utility.yul\":3042:3046   */\n      0x20\n        /* \"#utility.yul\":3036:3040   */\n      dup2\n        /* \"#utility.yul\":3032:3047   */\n      add\n        /* \"#utility.yul\":3024:3047   */\n      swap1\n      pop\n        /* \"#utility.yul\":2746:3054   */\n      swap2\n      swap1\n      pop\n      jump\t// out\n        /* \"#utility.yul\":3060:3208   */\n    tag_60:\n        /* \"#utility.yul\":3158:3164   */\n      dup3\n        /* \"#utility.yul\":3153:3156   */\n      dup2\n        /* \"#utility.yul\":3148:3151   */\n      dup4\n        /* \"#utility.yul\":3135:3165   */\n      calldatacopy\n        /* \"#utility.yul\":3199:3200   */\n      0x00\n        /* \"#utility.yul\":3190:3196   */\n      dup4\n        /* \"#utility.yul\":3185:3188   */\n      dup4\n        /* \"#utility.yul\":3181:3197   */\n      add\n        /* \"#utility.yul\":3174:3201   */\n      mstore\n        /* \"#utility.yul\":3060:3208   */\n      pop\n      pop\n      pop\n      jump\t// out\n        /* \"#utility.yul\":3214:3639   */\n    tag_61:\n        /* \"#utility.yul\":3292:3297   */\n      0x00\n        /* \"#utility.yul\":3317:3383   */\n      tag_122\n        /* \"#utility.yul\":3333:3382   */\n      tag_123\n        /* \"#utility.yul\":3375:3381   */\n      dup5\n        /* \"#utility.yul\":3333:3382   */\n      tag_59\n      jump\t// in\n    tag_123:\n        /* \"#utility.yul\":3317:3383   */\n      tag_58\n      jump\t// in\n    tag_122:\n        /* \"#utility.yul\":3308:3383   */\n      swap1\n      pop\n        /* \"#utility.yul\":3406:3412   */\n      dup3\n        /* \"#utility.yul\":3399:3404   */\n      dup2\n        /* \"#utility.yul\":3392:3413   */\n      mstore\n        /* \"#utility.yul\":3444:3448   */\n      0x20\n        /* \"#utility.yul\":3437:3442   */\n      dup2\n        /* \"#utility.yul\":3433:3449   */\n      add\n        /* \"#utility.yul\":3482:3485   */\n      dup5\n        /* \"#utility.yul\":3473:3479   */\n      dup5\n        /* \"#utility.yul\":3468:3471   */\n      dup5\n        /* \"#utility.yul\":3464:3480   */\n      add\n        /* \"#utility.yul\":3461:3486   */\n      gt\n        /* \"#utility.yul\":3458:3570   */\n      iszero\n      tag_124\n      jumpi\n        /* \"#utility.yul\":3489:3568   */\n      tag_125\n      tag_54\n      jump\t// in\n    tag_125:\n        /* \"#utility.yul\":3458:3570   */\n    tag_124:\n        /* \"#utility.yul\":3579:3633   */\n      tag_126\n        /* \"#utility.yul\":3626:3632   */\n      dup5\n        /* \"#utility.yul\":3621:3624   */\n      dup3\n        /* \"#utility.yul\":3616:3619   */\n      dup6\n        /* \"#utility.yul\":3579:3633   */\n      tag_60\n      jump\t// in\n    tag_126:\n        /* \"#utility.yul\":3298:3639   */\n      pop\n        /* \"#utility.yul\":3214:3639   */\n      swap4\n      swap3\n      pop\n      pop\n      pop\n      jump\t// out\n        /* \"#utility.yul\":3659:3999   */\n    tag_62:\n        /* \"#utility.yul\":3715:3720   */\n      0x00\n        /* \"#utility.yul\":3764:3767   */\n      dup3\n        /* \"#utility.yul\":3757:3761   */\n      0x1f\n        /* \"#utility.yul\":3749:3755   */\n      dup4\n        /* \"#utility.yul\":3745:3762   */\n      add\n        /* \"#utility.yul\":3741:3768   */\n      slt\n        /* \"#utility.yul\":3731:3853   */\n      tag_128\n      jumpi\n        /* \"#utility.yul\":3772:3851   */\n      tag_129\n      tag_53\n      jump\t// in\n    tag_129:\n        /* \"#utility.yul\":3731:3853   */\n    tag_128:\n        /* \"#utility.yul\":3889:3895   */\n      dup2\n        /* \"#utility.yul\":3876:3896   */\n      calldataload\n        /* \"#utility.yul\":3914:3993   */\n      tag_130\n        /* \"#utility.yul\":3989:3992   */\n      dup5\n        /* \"#utility.yul\":3981:3987   */\n      dup3\n        /* \"#utility.yul\":3974:3978   */\n      0x20\n        /* \"#utility.yul\":3966:3972   */\n      dup7\n        /* \"#utility.yul\":3962:3979   */\n      add\n        /* \"#utility.yul\":3914:3993   */\n      tag_61\n      jump\t// in\n    tag_130:\n        /* \"#utility.yul\":3905:3993   */\n      swap2\n      pop\n        /* \"#utility.yul\":3721:3999   */\n      pop\n        /* \"#utility.yul\":3659:3999   */\n      swap3\n      swap2\n      pop\n      pop\n      jump\t// out\n        /* \"#utility.yul\":4005:4659   */\n    tag_13:\n        /* \"#utility.yul\":4083:4089   */\n      0x00\n        /* \"#utility.yul\":4091:4097   */\n      0x00\n        /* \"#utility.yul\":4140:4142   */\n      0x40\n        /* \"#utility.yul\":4128:4137   */\n      dup4\n        /* \"#utility.yul\":4119:4126   */\n      dup6\n        /* \"#utility.yul\":4115:4138   */\n      sub\n        /* \"#utility.yul\":4111:4143   */\n      slt\n        /* \"#utility.yul\":4108:4227   */\n      iszero\n      tag_132\n      jumpi\n        /* \"#utility.yul\":4146:4225   */\n      tag_133\n      tag_48\n      jump\t// in\n    tag_133:\n        /* \"#utility.yul\":4108:4227   */\n    tag_132:\n        /* \"#utility.yul\":4266:4267   */\n      0x00\n        /* \"#utility.yul\":4291:4344   */\n      tag_134\n        /* \"#utility.yul\":4336:4343   */\n      dup6\n        /* \"#utility.yul\":4327:4333   */\n      dup3\n        /* \"#utility.yul\":4316:4325   */\n      dup7\n        /* \"#utility.yul\":4312:4334   */\n      add\n        /* \"#utility.yul\":4291:4344   */\n      tag_52\n      jump\t// in\n    tag_134:\n        /* \"#utility.yul\":4281:4344   */\n      swap3\n      pop\n        /* \"#utility.yul\":4237:4354   */\n      pop\n        /* \"#utility.yul\":4421:4423   */\n      0x20\n        /* \"#utility.yul\":4410:4419   */\n      dup4\n        /* \"#utility.yul\":4406:4424   */\n      add\n        /* \"#utility.yul\":4393:4425   */\n      calldataload\n        /* \"#utility.yul\":4452:4470   */\n      0xffffffffffffffff\n        /* \"#utility.yul\":4444:4450   */\n      dup2\n        /* \"#utility.yul\":4441:4471   */\n      gt\n        /* \"#utility.yul\":4438:4555   */\n      iszero\n      tag_135\n      jumpi\n        /* \"#utility.yul\":4474:4553   */\n      tag_136\n      tag_49\n      jump\t// in\n    tag_136:\n        /* \"#utility.yul\":4438:4555   */\n    tag_135:\n        /* \"#utility.yul\":4579:4642   */\n      tag_137\n        /* \"#utility.yul\":4634:4641   */\n      dup6\n        /* \"#utility.yul\":4625:4631   */\n      dup3\n        /* \"#utility.yul\":4614:4623   */\n      dup7\n        /* \"#utility.yul\":4610:4632   */\n      add\n        /* \"#utility.yul\":4579:4642   */\n      tag_62\n      jump\t// in\n    tag_137:\n        /* \"#utility.yul\":4569:4642   */\n      swap2\n      pop\n        /* \"#utility.yul\":4364:4652   */\n      pop\n        /* \"#utility.yul\":4005:4659   */\n      swap3\n      pop\n      swap3\n      swap1\n      pop\n      jump\t// out\n        /* \"#utility.yul\":4665:4783   */\n    tag_63:\n        /* \"#utility.yul\":4752:4776   */\n      tag_139\n        /* \"#utility.yul\":4770:4775   */\n      dup2\n        /* \"#utility.yul\":4752:4776   */\n      tag_50\n      jump\t// in\n    tag_139:\n        /* \"#utility.yul\":4747:4750   */\n      dup3\n        /* \"#utility.yul\":4740:4777   */\n      mstore\n        /* \"#utility.yul\":4665:4783   */\n      pop\n      pop\n      jump\t// out\n        /* \"#utility.yul\":4789:5011   */\n    tag_18:\n        /* \"#utility.yul\":4882:4886   */\n      0x00\n        /* \"#utility.yul\":4920:4922   */\n      0x20\n        /* \"#utility.yul\":4909:4918   */\n      dup3\n        /* \"#utility.yul\":4905:4923   */\n      add\n        /* \"#utility.yul\":4897:4923   */\n      swap1\n      pop\n        /* \"#utility.yul\":4933:5004   */\n      tag_141\n        /* \"#utility.yul\":5001:5002   */\n      0x00\n        /* \"#utility.yul\":4990:4999   */\n      dup4\n        /* \"#utility.yul\":4986:5003   */\n      add\n        /* \"#utility.yul\":4977:4983   */\n      dup5\n        /* \"#utility.yul\":4933:5004   */\n      tag_63\n      jump\t// in\n    tag_141:\n        /* \"#utility.yul\":4789:5011   */\n      swap3\n      swap2\n      pop\n      pop\n      jump\t// out\n        /* \"#utility.yul\":5017:5156   */\n    tag_64:\n        /* \"#utility.yul\":5080:5089   */\n      0x00\n        /* \"#utility.yul\":5113:5150   */\n      tag_143\n        /* \"#utility.yul\":5144:5149   */\n      dup3\n        /* \"#utility.yul\":5113:5150   */\n      tag_44\n      jump\t// in\n    tag_143:\n        /* \"#utility.yul\":5100:5150   */\n      swap1\n      pop\n        /* \"#utility.yul\":5017:5156   */\n      swap2\n      swap1\n      pop\n      jump\t// out\n        /* \"#utility.yul\":5162:5319   */\n    tag_65:\n        /* \"#utility.yul\":5262:5312   */\n      tag_145\n        /* \"#utility.yul\":5306:5311   */\n      dup2\n        /* \"#utility.yul\":5262:5312   */\n      tag_64\n      jump\t// in\n    tag_145:\n        /* \"#utility.yul\":5257:5260   */\n      dup3\n        /* \"#utility.yul\":5250:5313   */\n      mstore\n        /* \"#utility.yul\":5162:5319   */\n      pop\n      pop\n      jump\t// out\n        /* \"#utility.yul\":5325:5573   */\n    tag_22:\n        /* \"#utility.yul\":5431:5435   */\n      0x00\n        /* \"#utility.yul\":5469:5471   */\n      0x20\n        /* \"#utility.yul\":5458:5467   */\n      dup3\n        /* \"#utility.yul\":5454:5472   */\n      add\n        /* \"#utility.yul\":5446:5472   */\n      swap1\n      pop\n        /* \"#utility.yul\":5482:5566   */\n      tag_147\n        /* \"#utility.yul\":5563:5564   */\n      0x00\n        /* \"#utility.yul\":5552:5561   */\n      dup4\n        /* \"#utility.yul\":5548:5565   */\n      add\n        /* \"#utility.yul\":5539:5545   */\n      dup5\n        /* \"#utility.yul\":5482:5566   */\n      tag_65\n      jump\t// in\n    tag_147:\n        /* \"#utility.yul\":5325:5573   */\n      swap3\n      swap2\n      pop\n      pop\n      jump\t// out\n        /* \"#utility.yul\":5579:5748   */\n    tag_66:\n        /* \"#utility.yul\":5663:5674   */\n      0x00\n        /* \"#utility.yul\":5697:5703   */\n      dup3\n        /* \"#utility.yul\":5692:5695   */\n      dup3\n        /* \"#utility.yul\":5685:5704   */\n      mstore\n        /* \"#utility.yul\":5737:5741   */\n      0x20\n        /* \"#utility.yul\":5732:5735   */\n      dup3\n        /* \"#utility.yul\":5728:5742   */\n      add\n        /* \"#utility.yul\":5713:5742   */\n      swap1\n      pop\n        /* \"#utility.yul\":5579:5748   */\n      swap3\n      swap2\n      pop\n      pop\n      jump\t// out\n        /* \"#utility.yul\":5754:5914   */\n    tag_67:\n        /* \"#utility.yul\":5894:5906   */\n      0x4f6e6c792061646d696e00000000000000000000000000000000000000000000\n        /* \"#utility.yul\":5890:5891   */\n      0x00\n        /* \"#utility.yul\":5882:5888   */\n      dup3\n        /* \"#utility.yul\":5878:5892   */\n      add\n        /* \"#utility.yul\":5871:5907   */\n      mstore\n        /* \"#utility.yul\":5754:5914   */\n      pop\n      jump\t// out\n        /* \"#utility.yul\":5920:6286   */\n    tag_68:\n        /* \"#utility.yul\":6062:6065   */\n      0x00\n        /* \"#utility.yul\":6083:6150   */\n      tag_151\n        /* \"#utility.yul\":6147:6149   */\n      0x0a\n        /* \"#utility.yul\":6142:6145   */\n      dup4\n        /* \"#utility.yul\":6083:6150   */\n      tag_66\n      jump\t// in\n    tag_151:\n        /* \"#utility.yul\":6076:6150   */\n      swap2\n      pop\n        /* \"#utility.yul\":6159:6252   */\n      tag_152\n        /* \"#utility.yul\":6248:6251   */\n      dup3\n        /* \"#utility.yul\":6159:6252   */\n      tag_67\n      jump\t// in\n    tag_152:\n        /* \"#utility.yul\":6277:6279   */\n      0x20\n        /* \"#utility.yul\":6272:6275   */\n      dup3\n        /* \"#utility.yul\":6268:6280   */\n      add\n        /* \"#utility.yul\":6261:6280   */\n      swap1\n      pop\n        /* \"#utility.yul\":5920:6286   */\n      swap2\n      swap1\n      pop\n      jump\t// out\n        /* \"#utility.yul\":6292:6711   */\n    tag_26:\n        /* \"#utility.yul\":6458:6462   */\n      0x00\n        /* \"#utility.yul\":6496:6498   */\n      0x20\n        /* \"#utility.yul\":6485:6494   */\n      dup3\n        /* \"#utility.yul\":6481:6499   */\n      add\n        /* \"#utility.yul\":6473:6499   */\n      swap1\n      pop\n        /* \"#utility.yul\":6545:6554   */\n      dup2\n        /* \"#utility.yul\":6539:6543   */\n      dup2\n        /* \"#utility.yul\":6535:6555   */\n      sub\n        /* \"#utility.yul\":6531:6532   */\n      0x00\n        /* \"#utility.yul\":6520:6529   */\n      dup4\n        /* \"#utility.yul\":6516:6533   */\n      add\n        /* \"#utility.yul\":6509:6556   */\n      mstore\n        /* \"#utility.yul\":6573:6704   */\n      tag_154\n        /* \"#utility.yul\":6699:6703   */\n      dup2\n        /* \"#utility.yul\":6573:6704   */\n      tag_68\n      jump\t// in\n    tag_154:\n        /* \"#utility.yul\":6565:6704   */\n      swap1\n      pop\n        /* \"#utility.yul\":6292:6711   */\n      swap2\n      swap1\n      pop\n      jump\t// out\n        /* \"#utility.yul\":6717:6816   */\n    tag_69:\n        /* \"#utility.yul\":6769:6775   */\n      0x00\n        /* \"#utility.yul\":6803:6808   */\n      dup2\n        /* \"#utility.yul\":6797:6809   */\n      mload\n        /* \"#utility.yul\":6787:6809   */\n      swap1\n      pop\n        /* \"#utility.yul\":6717:6816   */\n      swap2\n      swap1\n      pop\n      jump\t// out\n        /* \"#utility.yul\":6822:6961   */\n    tag_70:\n        /* \"#utility.yul\":6911:6917   */\n      dup3\n        /* \"#utility.yul\":6906:6909   */\n      dup2\n        /* \"#utility.yul\":6901:6904   */\n      dup4\n        /* \"#utility.yul\":6895:6918   */\n      mcopy\n        /* \"#utility.yul\":6952:6953   */\n      0x00\n        /* \"#utility.yul\":6943:6949   */\n      dup4\n        /* \"#utility.yul\":6938:6941   */\n      dup4\n        /* \"#utility.yul\":6934:6950   */\n      add\n        /* \"#utility.yul\":6927:6954   */\n      mstore\n        /* \"#utility.yul\":6822:6961   */\n      pop\n      pop\n      pop\n      jump\t// out\n        /* \"#utility.yul\":6967:7344   */\n    tag_71:\n        /* \"#utility.yul\":7055:7058   */\n      0x00\n        /* \"#utility.yul\":7083:7122   */\n      tag_158\n        /* \"#utility.yul\":7116:7121   */\n      dup3\n        /* \"#utility.yul\":7083:7122   */\n      tag_69\n      jump\t// in\n    tag_158:\n        /* \"#utility.yul\":7138:7209   */\n      tag_159\n        /* \"#utility.yul\":7202:7208   */\n      dup2\n        /* \"#utility.yul\":7197:7200   */\n      dup6\n        /* \"#utility.yul\":7138:7209   */\n      tag_66\n      jump\t// in\n    tag_159:\n        /* \"#utility.yul\":7131:7209   */\n      swap4\n      pop\n        /* \"#utility.yul\":7218:7283   */\n      tag_160\n        /* \"#utility.yul\":7276:7282   */\n      dup2\n        /* \"#utility.yul\":7271:7274   */\n      dup6\n        /* \"#utility.yul\":7264:7268   */\n      0x20\n        /* \"#utility.yul\":7257:7262   */\n      dup7\n        /* \"#utility.yul\":7253:7269   */\n      add\n        /* \"#utility.yul\":7218:7283   */\n      tag_70\n      jump\t// in\n    tag_160:\n        /* \"#utility.yul\":7308:7337   */\n      tag_161\n        /* \"#utility.yul\":7330:7336   */\n      dup2\n        /* \"#utility.yul\":7308:7337   */\n      tag_55\n      jump\t// in\n    tag_161:\n        /* \"#utility.yul\":7303:7306   */\n      dup5\n        /* \"#utility.yul\":7299:7338   */\n      add\n        /* \"#utility.yul\":7292:7338   */\n      swap2\n      pop\n        /* \"#utility.yul\":7059:7344   */\n      pop\n        /* \"#utility.yul\":6967:7344   */\n      swap3\n      swap2\n      pop\n      pop\n      jump\t// out\n        /* \"#utility.yul\":7350:7663   */\n    tag_28:\n        /* \"#utility.yul\":7463:7467   */\n      0x00\n        /* \"#utility.yul\":7501:7503   */\n      0x20\n        /* \"#utility.yul\":7490:7499   */\n      dup3\n        /* \"#utility.yul\":7486:7504   */\n      add\n        /* \"#utility.yul\":7478:7504   */\n      swap1\n      pop\n        /* \"#utility.yul\":7550:7559   */\n      dup2\n        /* \"#utility.yul\":7544:7548   */\n      dup2\n        /* \"#utility.yul\":7540:7560   */\n      sub\n        /* \"#utility.yul\":7536:7537   */\n      0x00\n        /* \"#utility.yul\":7525:7534   */\n      dup4\n        /* \"#utility.yul\":7521:7538   */\n      add\n        /* \"#utility.yul\":7514:7561   */\n      mstore\n        /* \"#utility.yul\":7578:7656   */\n      tag_163\n        /* \"#utility.yul\":7651:7655   */\n      dup2\n        /* \"#utility.yul\":7642:7648   */\n      dup5\n        /* \"#utility.yul\":7578:7656   */\n      tag_71\n      jump\t// in\n    tag_163:\n        /* \"#utility.yul\":7570:7656   */\n      swap1\n      pop\n        /* \"#utility.yul\":7350:7663   */\n      swap3\n      swap2\n      pop\n      pop\n      jump\t// out\n        /* \"#utility.yul\":7669:7746   */\n    tag_72:\n        /* \"#utility.yul\":7706:7713   */\n      0x00\n        /* \"#utility.yul\":7735:7740   */\n      dup2\n        /* \"#utility.yul\":7724:7740   */\n      swap1\n      pop\n        /* \"#utility.yul\":7669:7746   */\n      swap2\n      swap1\n      pop\n      jump\t// out\n        /* \"#utility.yul\":7752:7874   */\n    tag_73:\n        /* \"#utility.yul\":7825:7849   */\n      tag_166\n        /* \"#utility.yul\":7843:7848   */\n      dup2\n        /* \"#utility.yul\":7825:7849   */\n      tag_72\n      jump\t// in\n    tag_166:\n        /* \"#utility.yul\":7818:7823   */\n      dup2\n        /* \"#utility.yul\":7815:7850   */\n      eq\n        /* \"#utility.yul\":7805:7868   */\n      tag_167\n      jumpi\n        /* \"#utility.yul\":7864:7865   */\n      0x00\n        /* \"#utility.yul\":7861:7862   */\n      0x00\n        /* \"#utility.yul\":7854:7866   */\n      revert\n        /* \"#utility.yul\":7805:7868   */\n    tag_167:\n        /* \"#utility.yul\":7752:7874   */\n      pop\n      jump\t// out\n        /* \"#utility.yul\":7880:8023   */\n    tag_74:\n        /* \"#utility.yul\":7937:7942   */\n      0x00\n        /* \"#utility.yul\":7968:7974   */\n      dup2\n        /* \"#utility.yul\":7962:7975   */\n      mload\n        /* \"#utility.yul\":7953:7975   */\n      swap1\n      pop\n        /* \"#utility.yul\":7984:8017   */\n      tag_169\n        /* \"#utility.yul\":8011:8016   */\n      dup2\n        /* \"#utility.yul\":7984:8017   */\n      tag_73\n      jump\t// in\n    tag_169:\n        /* \"#utility.yul\":7880:8023   */\n      swap3\n      swap2\n      pop\n      pop\n      jump\t// out\n        /* \"#utility.yul\":8029:8380   */\n    tag_32:\n        /* \"#utility.yul\":8099:8105   */\n      0x00\n        /* \"#utility.yul\":8148:8150   */\n      0x20\n        /* \"#utility.yul\":8136:8145   */\n      dup3\n        /* \"#utility.yul\":8127:8134   */\n      dup5\n        /* \"#utility.yul\":8123:8146   */\n      sub\n        /* \"#utility.yul\":8119:8151   */\n      slt\n        /* \"#utility.yul\":8116:8235   */\n      iszero\n      tag_171\n      jumpi\n        /* \"#utility.yul\":8154:8233   */\n      tag_172\n      tag_48\n      jump\t// in\n    tag_172:\n        /* \"#utility.yul\":8116:8235   */\n    tag_171:\n        /* \"#utility.yul\":8274:8275   */\n      0x00\n        /* \"#utility.yul\":8299:8363   */\n      tag_173\n        /* \"#utility.yul\":8355:8362   */\n      dup5\n        /* \"#utility.yul\":8346:8352   */\n      dup3\n        /* \"#utility.yul\":8335:8344   */\n      dup6\n        /* \"#utility.yul\":8331:8353   */\n      add\n        /* \"#utility.yul\":8299:8363   */\n      tag_74\n      jump\t// in\n    tag_173:\n        /* \"#utility.yul\":8289:8363   */\n      swap2\n      pop\n        /* \"#utility.yul\":8245:8373   */\n      pop\n        /* \"#utility.yul\":8029:8380   */\n      swap3\n      swap2\n      pop\n      pop\n      jump\t// out\n        /* \"#utility.yul\":8386:8566   */\n    tag_75:\n        /* \"#utility.yul\":8434:8511   */\n      0x4e487b7100000000000000000000000000000000000000000000000000000000\n        /* \"#utility.yul\":8431:8432   */\n      0x00\n        /* \"#utility.yul\":8424:8512   */\n      mstore\n        /* \"#utility.yul\":8531:8535   */\n      0x11\n        /* \"#utility.yul\":8528:8529   */\n      0x04\n        /* \"#utility.yul\":8521:8536   */\n      mstore\n        /* \"#utility.yul\":8555:8559   */\n      0x24\n        /* \"#utility.yul\":8552:8553   */\n      0x00\n        /* \"#utility.yul\":8545:8560   */\n      revert\n        /* \"#utility.yul\":8572:8982   */\n    tag_34:\n        /* \"#utility.yul\":8612:8619   */\n      0x00\n        /* \"#utility.yul\":8635:8655   */\n      tag_176\n        /* \"#utility.yul\":8653:8654   */\n      dup3\n        /* \"#utility.yul\":8635:8655   */\n      tag_72\n      jump\t// in\n    tag_176:\n        /* \"#utility.yul\":8630:8655   */\n      swap2\n      pop\n        /* \"#utility.yul\":8669:8689   */\n      tag_177\n        /* \"#utility.yul\":8687:8688   */\n      dup4\n        /* \"#utility.yul\":8669:8689   */\n      tag_72\n      jump\t// in\n    tag_177:\n        /* \"#utility.yul\":8664:8689   */\n      swap3\n      pop\n        /* \"#utility.yul\":8724:8725   */\n      dup3\n        /* \"#utility.yul\":8721:8722   */\n      dup3\n        /* \"#utility.yul\":8717:8726   */\n      mul\n        /* \"#utility.yul\":8746:8776   */\n      tag_178\n        /* \"#utility.yul\":8764:8775   */\n      dup2\n        /* \"#utility.yul\":8746:8776   */\n      tag_72\n      jump\t// in\n    tag_178:\n        /* \"#utility.yul\":8735:8776   */\n      swap2\n      pop\n        /* \"#utility.yul\":8925:8926   */\n      dup3\n        /* \"#utility.yul\":8916:8923   */\n      dup3\n        /* \"#utility.yul\":8912:8927   */\n      div\n        /* \"#utility.yul\":8909:8910   */\n      dup5\n        /* \"#utility.yul\":8906:8928   */\n      eq\n        /* \"#utility.yul\":8886:8887   */\n      dup4\n        /* \"#utility.yul\":8879:8888   */\n      iszero\n        /* \"#utility.yul\":8859:8942   */\n      or\n        /* \"#utility.yul\":8836:8975   */\n      tag_179\n      jumpi\n        /* \"#utility.yul\":8955:8973   */\n      tag_180\n      tag_75\n      jump\t// in\n    tag_180:\n        /* \"#utility.yul\":8836:8975   */\n    tag_179:\n        /* \"#utility.yul\":8620:8982   */\n      pop\n        /* \"#utility.yul\":8572:8982   */\n      swap3\n      swap2\n      pop\n      pop\n      jump\t// out\n        /* \"#utility.yul\":8988:9106   */\n    tag_76:\n        /* \"#utility.yul\":9075:9099   */\n      tag_182\n        /* \"#utility.yul\":9093:9098   */\n      dup2\n        /* \"#utility.yul\":9075:9099   */\n      tag_72\n      jump\t// in\n    tag_182:\n        /* \"#utility.yul\":9070:9073   */\n      dup3\n        /* \"#utility.yul\":9063:9100   */\n      mstore\n        /* \"#utility.yul\":8988:9106   */\n      pop\n      pop\n      jump\t// out\n        /* \"#utility.yul\":9112:9444   */\n    tag_36:\n        /* \"#utility.yul\":9233:9237   */\n      0x00\n        /* \"#utility.yul\":9271:9273   */\n      0x40\n        /* \"#utility.yul\":9260:9269   */\n      dup3\n        /* \"#utility.yul\":9256:9274   */\n      add\n        /* \"#utility.yul\":9248:9274   */\n      swap1\n      pop\n        /* \"#utility.yul\":9284:9355   */\n      tag_184\n        /* \"#utility.yul\":9352:9353   */\n      0x00\n        /* \"#utility.yul\":9341:9350   */\n      dup4\n        /* \"#utility.yul\":9337:9354   */\n      add\n        /* \"#utility.yul\":9328:9334   */\n      dup6\n        /* \"#utility.yul\":9284:9355   */\n      tag_63\n      jump\t// in\n    tag_184:\n        /* \"#utility.yul\":9365:9437   */\n      tag_185\n        /* \"#utility.yul\":9433:9435   */\n      0x20\n        /* \"#utility.yul\":9422:9431   */\n      dup4\n        /* \"#utility.yul\":9418:9436   */\n      add\n        /* \"#utility.yul\":9409:9415   */\n      dup5\n        /* \"#utility.yul\":9365:9437   */\n      tag_76\n      jump\t// in\n    tag_185:\n        /* \"#utility.yul\":9112:9444   */\n      swap4\n      swap3\n      pop\n      pop\n      pop\n      jump\t// out\n        /* \"#utility.yul\":9450:9540   */\n    tag_77:\n        /* \"#utility.yul\":9484:9491   */\n      0x00\n        /* \"#utility.yul\":9527:9532   */\n      dup2\n        /* \"#utility.yul\":9520:9533   */\n      iszero\n        /* \"#utility.yul\":9513:9534   */\n      iszero\n        /* \"#utility.yul\":9502:9534   */\n      swap1\n      pop\n        /* \"#utility.yul\":9450:9540   */\n      swap2\n      swap1\n      pop\n      jump\t// out\n        /* \"#utility.yul\":9546:9662   */\n    tag_78:\n        /* \"#utility.yul\":9616:9637   */\n      tag_188\n        /* \"#utility.yul\":9631:9636   */\n      dup2\n        /* \"#utility.yul\":9616:9637   */\n      tag_77\n      jump\t// in\n    tag_188:\n        /* \"#utility.yul\":9609:9614   */\n      dup2\n        /* \"#utility.yul\":9606:9638   */\n      eq\n        /* \"#utility.yul\":9596:9656   */\n      tag_189\n      jumpi\n        /* \"#utility.yul\":9652:9653   */\n      0x00\n        /* \"#utility.yul\":9649:9650   */\n      0x00\n        /* \"#utility.yul\":9642:9654   */\n      revert\n        /* \"#utility.yul\":9596:9656   */\n    tag_189:\n        /* \"#utility.yul\":9546:9662   */\n      pop\n      jump\t// out\n        /* \"#utility.yul\":9668:9805   */\n    tag_79:\n        /* \"#utility.yul\":9722:9727   */\n      0x00\n        /* \"#utility.yul\":9753:9759   */\n      dup2\n        /* \"#utility.yul\":9747:9760   */\n      mload\n        /* \"#utility.yul\":9738:9760   */\n      swap1\n      pop\n        /* \"#utility.yul\":9769:9799   */\n      tag_191\n        /* \"#utility.yul\":9793:9798   */\n      dup2\n        /* \"#utility.yul\":9769:9799   */\n      tag_78\n      jump\t// in\n    tag_191:\n        /* \"#utility.yul\":9668:9805   */\n      swap3\n      swap2\n      pop\n      pop\n      jump\t// out\n        /* \"#utility.yul\":9811:10156   */\n    tag_40:\n        /* \"#utility.yul\":9878:9884   */\n      0x00\n        /* \"#utility.yul\":9927:9929   */\n      0x20\n        /* \"#utility.yul\":9915:9924   */\n      dup3\n        /* \"#utility.yul\":9906:9913   */\n      dup5\n        /* \"#utility.yul\":9902:9925   */\n      sub\n        /* \"#utility.yul\":9898:9930   */\n      slt\n        /* \"#utility.yul\":9895:10014   */\n      iszero\n      tag_193\n      jumpi\n        /* \"#utility.yul\":9933:10012   */\n      tag_194\n      tag_48\n      jump\t// in\n    tag_194:\n        /* \"#utility.yul\":9895:10014   */\n    tag_193:\n        /* \"#utility.yul\":10053:10054   */\n      0x00\n        /* \"#utility.yul\":10078:10139   */\n      tag_195\n        /* \"#utility.yul\":10131:10138   */\n      dup5\n        /* \"#utility.yul\":10122:10128   */\n      dup3\n        /* \"#utility.yul\":10111:10120   */\n      dup6\n        /* \"#utility.yul\":10107:10129   */\n      add\n        /* \"#utility.yul\":10078:10139   */\n      tag_79\n      jump\t// in\n    tag_195:\n        /* \"#utility.yul\":10068:10139   */\n      swap2\n      pop\n        /* \"#utility.yul\":10024:10149   */\n      pop\n        /* \"#utility.yul\":9811:10156   */\n      swap3\n      swap2\n      pop\n      pop\n      jump\t// out\n\n    auxdata: 0xa2646970667358221220d1dd709c3350c6c34480a51fcba8742f199d1af889987fc68c5053341b80eb5464736f6c634300081e0033\n}\n",
				"bytecode": {
					"linkReferences": {},
					"object": "608060405234801561000f575f5ffd5b50604051610a07380380610a0783398181016040528101906100319190610155565b815f5f6101000a81548173ffffffffffffffffffffffffffffffffffffffff021916908373ffffffffffffffffffffffffffffffffffffffff1602179055508060015f6101000a81548173ffffffffffffffffffffffffffffffffffffffff021916908373ffffffffffffffffffffffffffffffffffffffff1602179055503360025f6101000a81548173ffffffffffffffffffffffffffffffffffffffff021916908373ffffffffffffffffffffffffffffffffffffffff1602179055505050610193565b5f5ffd5b5f73ffffffffffffffffffffffffffffffffffffffff82169050919050565b5f610124826100fb565b9050919050565b6101348161011a565b811461013e575f5ffd5b50565b5f8151905061014f8161012b565b92915050565b5f5f6040838503121561016b5761016a6100f7565b5b5f61017885828601610141565b925050602061018985828601610141565b9150509250929050565b610867806101a05f395ff3fe608060405234801561000f575f5ffd5b506004361061004a575f3560e01c80630505c8c91461004e5780636c4be8ff1461006c578063f851a44014610088578063fc0c546a146100a6575b5f5ffd5b6100566100c4565b604051610063919061038b565b60405180910390f35b6100866004803603810190610081919061052c565b6100e9565b005b6100906102c8565b60405161009d9190610595565b60405180910390f35b6100ae6102ed565b6040516100bb91906105ce565b60405180910390f35b60015f9054906101000a900473ffffffffffffffffffffffffffffffffffffffff1681565b60025f9054906101000a900473ffffffffffffffffffffffffffffffffffffffff1673ffffffffffffffffffffffffffffffffffffffff163373ffffffffffffffffffffffffffffffffffffffff1614610178576040517f08c379a000000000000000000000000000000000000000000000000000000000815260040161016f90610641565b60405180910390fd5b5f670de0b6b3a764000060015f9054906101000a900473ffffffffffffffffffffffffffffffffffffffff1673ffffffffffffffffffffffffffffffffffffffff16637e564aeb846040518263ffffffff1660e01b81526004016101dc91906106af565b602060405180830381865afa1580156101f7573d5f5f3e3d5ffd5b505050506040513d601f19601f8201168201806040525081019061021b9190610702565b610225919061075a565b90505f5f9054906101000a900473ffffffffffffffffffffffffffffffffffffffff1673ffffffffffffffffffffffffffffffffffffffff1663a9059cbb84836040518363ffffffff1660e01b81526004016102829291906107aa565b6020604051808303815f875af115801561029e573d5f5f3e3d5ffd5b505050506040513d601f19601f820116820180604052508101906102c29190610806565b50505050565b60025f9054906101000a900473ffffffffffffffffffffffffffffffffffffffff1681565b5f5f9054906101000a900473ffffffffffffffffffffffffffffffffffffffff1681565b5f73ffffffffffffffffffffffffffffffffffffffff82169050919050565b5f819050919050565b5f61035361034e61034984610311565b610330565b610311565b9050919050565b5f61036482610339565b9050919050565b5f6103758261035a565b9050919050565b6103858161036b565b82525050565b5f60208201905061039e5f83018461037c565b92915050565b5f604051905090565b5f5ffd5b5f5ffd5b5f6103bf82610311565b9050919050565b6103cf816103b5565b81146103d9575f5ffd5b50565b5f813590506103ea816103c6565b92915050565b5f5ffd5b5f5ffd5b5f601f19601f8301169050919050565b7f4e487b71000000000000000000000000000000000000000000000000000000005f52604160045260245ffd5b61043e826103f8565b810181811067ffffffffffffffff8211171561045d5761045c610408565b5b80604052505050565b5f61046f6103a4565b905061047b8282610435565b919050565b5f67ffffffffffffffff82111561049a57610499610408565b5b6104a3826103f8565b9050602081019050919050565b828183375f83830152505050565b5f6104d06104cb84610480565b610466565b9050828152602081018484840111156104ec576104eb6103f4565b5b6104f78482856104b0565b509392505050565b5f82601f830112610513576105126103f0565b5b81356105238482602086016104be565b91505092915050565b5f5f60408385031215610542576105416103ad565b5b5f61054f858286016103dc565b925050602083013567ffffffffffffffff8111156105705761056f6103b1565b5b61057c858286016104ff565b9150509250929050565b61058f816103b5565b82525050565b5f6020820190506105a85f830184610586565b92915050565b5f6105b88261035a565b9050919050565b6105c8816105ae565b82525050565b5f6020820190506105e15f8301846105bf565b92915050565b5f82825260208201905092915050565b7f4f6e6c792061646d696e000000000000000000000000000000000000000000005f82015250565b5f61062b600a836105e7565b9150610636826105f7565b602082019050919050565b5f6020820190508181035f8301526106588161061f565b9050919050565b5f81519050919050565b8281835e5f83830152505050565b5f6106818261065f565b61068b81856105e7565b935061069b818560208601610669565b6106a4816103f8565b840191505092915050565b5f6020820190508181035f8301526106c78184610677565b905092915050565b5f819050919050565b6106e1816106cf565b81146106eb575f5ffd5b50565b5f815190506106fc816106d8565b92915050565b5f60208284031215610717576107166103ad565b5b5f610724848285016106ee565b91505092915050565b7f4e487b71000000000000000000000000000000000000000000000000000000005f52601160045260245ffd5b5f610764826106cf565b915061076f836106cf565b925082820261077d816106cf565b915082820484148315176107945761079361072d565b5b5092915050565b6107a4816106cf565b82525050565b5f6040820190506107bd5f830185610586565b6107ca602083018461079b565b9392505050565b5f8115159050919050565b6107e5816107d1565b81146107ef575f5ffd5b50565b5f81519050610800816107dc565b92915050565b5f6020828403121561081b5761081a6103ad565b5b5f610828848285016107f2565b9150509291505056fea2646970667358221220d1dd709c3350c6c34480a51fcba8742f199d1af889987fc68c5053341b80eb5464736f6c634300081e0033",
					"opcodes": "PUSH1 0x80 PUSH1 0x40 MSTORE CALLVALUE DUP1 ISZERO PUSH2 0xF JUMPI PUSH0 PUSH0 REVERT JUMPDEST POP PUSH1 0x40 MLOAD PUSH2 0xA07 CODESIZE SUB DUP1 PUSH2 0xA07 DUP4 CODECOPY DUP2 DUP2 ADD PUSH1 0x40 MSTORE DUP2 ADD SWAP1 PUSH2 0x31 SWAP2 SWAP1 PUSH2 0x155 JUMP JUMPDEST DUP2 PUSH0 PUSH0 PUSH2 0x100 EXP DUP2 SLOAD DUP2 PUSH20 0xFFFFFFFFFFFFFFFFFFFFFFFFFFFFFFFFFFFFFFFF MUL NOT AND SWAP1 DUP4 PUSH20 0xFFFFFFFFFFFFFFFFFFFFFFFFFFFFFFFFFFFFFFFF AND MUL OR SWAP1 SSTORE POP DUP1 PUSH1 0x1 PUSH0 PUSH2 0x100 EXP DUP2 SLOAD DUP2 PUSH20 0xFFFFFFFFFFFFFFFFFFFFFFFFFFFFFFFFFFFFFFFF MUL NOT AND SWAP1 DUP4 PUSH20 0xFFFFFFFFFFFFFFFFFFFFFFFFFFFFFFFFFFFFFFFF AND MUL OR SWAP1 SSTORE POP CALLER PUSH1 0x2 PUSH0 PUSH2 0x100 EXP DUP2 SLOAD DUP2 PUSH20 0xFFFFFFFFFFFFFFFFFFFFFFFFFFFFFFFFFFFFFFFF MUL NOT AND SWAP1 DUP4 PUSH20 0xFFFFFFFFFFFFFFFFFFFFFFFFFFFFFFFFFFFFFFFF AND MUL OR SWAP1 SSTORE POP POP POP PUSH2 0x193 JUMP JUMPDEST PUSH0 PUSH0 REVERT JUMPDEST PUSH0 PUSH20 0xFFFFFFFFFFFFFFFFFFFFFFFFFFFFFFFFFFFFFFFF DUP3 AND SWAP1 POP SWAP2 SWAP1 POP JUMP JUMPDEST PUSH0 PUSH2 0x124 DUP3 PUSH2 0xFB JUMP JUMPDEST SWAP1 POP SWAP2 SWAP1 POP JUMP JUMPDEST PUSH2 0x134 DUP2 PUSH2 0x11A JUMP JUMPDEST DUP2 EQ PUSH2 0x13E JUMPI PUSH0 PUSH0 REVERT JUMPDEST POP JUMP JUMPDEST PUSH0 DUP2 MLOAD SWAP1 POP PUSH2 0x14F DUP2 PUSH2 0x12B JUMP JUMPDEST SWAP3 SWAP2 POP POP JUMP JUMPDEST PUSH0 PUSH0 PUSH1 0x40 DUP4 DUP6 SUB SLT ISZERO PUSH2 0x16B JUMPI PUSH2 0x16A PUSH2 0xF7 JUMP JUMPDEST JUMPDEST PUSH0 PUSH2 0x178 DUP6 DUP3 DUP7 ADD PUSH2 0x141 JUMP JUMPDEST SWAP3 POP POP PUSH1 0x20 PUSH2 0x189 DUP6 DUP3 DUP7 ADD PUSH2 0x141 JUMP JUMPDEST SWAP2 POP POP SWAP3 POP SWAP3 SWAP1 POP JUMP JUMPDEST PUSH2 0x867 DUP1 PUSH2 0x1A0 PUSH0 CODECOPY PUSH0 RETURN INVALID PUSH1 0x80 PUSH1 0x40 MSTORE CALLVALUE DUP1 ISZERO PUSH2 0xF JUMPI PUSH0 PUSH0 REVERT JUMPDEST POP PUSH1 0x4 CALLDATASIZE LT PUSH2 0x4A JUMPI PUSH0 CALLDATALOAD PUSH1 0xE0 SHR DUP1 PUSH4 0x505C8C9 EQ PUSH2 0x4E JUMPI DUP1 PUSH4 0x6C4BE8FF EQ PUSH2 0x6C JUMPI DUP1 PUSH4 0xF851A440 EQ PUSH2 0x88 JUMPI DUP1 PUSH4 0xFC0C546A EQ PUSH2 0xA6 JUMPI JUMPDEST PUSH0 PUSH0 REVERT JUMPDEST PUSH2 0x56 PUSH2 0xC4 JUMP JUMPDEST PUSH1 0x40 MLOAD PUSH2 0x63 SWAP2 SWAP1 PUSH2 0x38B JUMP JUMPDEST PUSH1 0x40 MLOAD DUP1 SWAP2 SUB SWAP1 RETURN JUMPDEST PUSH2 0x86 PUSH1 0x4 DUP1 CALLDATASIZE SUB DUP2 ADD SWAP1 PUSH2 0x81 SWAP2 SWAP1 PUSH2 0x52C JUMP JUMPDEST PUSH2 0xE9 JUMP JUMPDEST STOP JUMPDEST PUSH2 0x90 PUSH2 0x2C8 JUMP JUMPDEST PUSH1 0x40 MLOAD PUSH2 0x9D SWAP2 SWAP1 PUSH2 0x595 JUMP JUMPDEST PUSH1 0x40 MLOAD DUP1 SWAP2 SUB SWAP1 RETURN JUMPDEST PUSH2 0xAE PUSH2 0x2ED JUMP JUMPDEST PUSH1 0x40 MLOAD PUSH2 0xBB SWAP2 SWAP1 PUSH2 0x5CE JUMP JUMPDEST PUSH1 0x40 MLOAD DUP1 SWAP2 SUB SWAP1 RETURN JUMPDEST PUSH1 0x1 PUSH0 SWAP1 SLOAD SWAP1 PUSH2 0x100 EXP SWAP1 DIV PUSH20 0xFFFFFFFFFFFFFFFFFFFFFFFFFFFFFFFFFFFFFFFF AND DUP2 JUMP JUMPDEST PUSH1 0x2 PUSH0 SWAP1 SLOAD SWAP1 PUSH2 0x100 EXP SWAP1 DIV PUSH20 0xFFFFFFFFFFFFFFFFFFFFFFFFFFFFFFFFFFFFFFFF AND PUSH20 0xFFFFFFFFFFFFFFFFFFFFFFFFFFFFFFFFFFFFFFFF AND CALLER PUSH20 0xFFFFFFFFFFFFFFFFFFFFFFFFFFFFFFFFFFFFFFFF AND EQ PUSH2 0x178 JUMPI PUSH1 0x40 MLOAD PUSH32 0x8C379A000000000000000000000000000000000000000000000000000000000 DUP2 MSTORE PUSH1 0x4 ADD PUSH2 0x16F SWAP1 PUSH2 0x641 JUMP JUMPDEST PUSH1 0x40 MLOAD DUP1 SWAP2 SUB SWAP1 REVERT JUMPDEST PUSH0 PUSH8 0xDE0B6B3A7640000 PUSH1 0x1 PUSH0 SWAP1 SLOAD SWAP1 PUSH2 0x100 EXP SWAP1 DIV PUSH20 0xFFFFFFFFFFFFFFFFFFFFFFFFFFFFFFFFFFFFFFFF AND PUSH20 0xFFFFFFFFFFFFFFFFFFFFFFFFFFFFFFFFFFFFFFFF AND PUSH4 0x7E564AEB DUP5 PUSH1 0x40 MLOAD DUP3 PUSH4 0xFFFFFFFF AND PUSH1 0xE0 SHL DUP2 MSTORE PUSH1 0x4 ADD PUSH2 0x1DC SWAP2 SWAP1 PUSH2 0x6AF JUMP JUMPDEST PUSH1 0x20 PUSH1 0x40 MLOAD DUP1 DUP4 SUB DUP2 DUP7 GAS STATICCALL ISZERO DUP1 ISZERO PUSH2 0x1F7 JUMPI RETURNDATASIZE PUSH0 PUSH0 RETURNDATACOPY RETURNDATASIZE PUSH0 REVERT JUMPDEST POP POP POP POP PUSH1 0x40 MLOAD RETURNDATASIZE PUSH1 0x1F NOT PUSH1 0x1F DUP3 ADD AND DUP3 ADD DUP1 PUSH1 0x40 MSTORE POP DUP2 ADD SWAP1 PUSH2 0x21B SWAP2 SWAP1 PUSH2 0x702 JUMP JUMPDEST PUSH2 0x225 SWAP2 SWAP1 PUSH2 0x75A JUMP JUMPDEST SWAP1 POP PUSH0 PUSH0 SWAP1 SLOAD SWAP1 PUSH2 0x100 EXP SWAP1 DIV PUSH20 0xFFFFFFFFFFFFFFFFFFFFFFFFFFFFFFFFFFFFFFFF AND PUSH20 0xFFFFFFFFFFFFFFFFFFFFFFFFFFFFFFFFFFFFFFFF AND PUSH4 0xA9059CBB DUP5 DUP4 PUSH1 0x40 MLOAD DUP4 PUSH4 0xFFFFFFFF AND PUSH1 0xE0 SHL DUP2 MSTORE PUSH1 0x4 ADD PUSH2 0x282 SWAP3 SWAP2 SWAP1 PUSH2 0x7AA JUMP JUMPDEST PUSH1 0x20 PUSH1 0x40 MLOAD DUP1 DUP4 SUB DUP2 PUSH0 DUP8 GAS CALL ISZERO DUP1 ISZERO PUSH2 0x29E JUMPI RETURNDATASIZE PUSH0 PUSH0 RETURNDATACOPY RETURNDATASIZE PUSH0 REVERT JUMPDEST POP POP POP POP PUSH1 0x40 MLOAD RETURNDATASIZE PUSH1 0x1F NOT PUSH1 0x1F DUP3 ADD AND DUP3 ADD DUP1 PUSH1 0x40 MSTORE POP DUP2 ADD SWAP1 PUSH2 0x2C2 SWAP2 SWAP1 PUSH2 0x806 JUMP JUMPDEST POP POP POP POP JUMP JUMPDEST PUSH1 0x2 PUSH0 SWAP1 SLOAD SWAP1 PUSH2 0x100 EXP SWAP1 DIV PUSH20 0xFFFFFFFFFFFFFFFFFFFFFFFFFFFFFFFFFFFFFFFF AND DUP2 JUMP JUMPDEST PUSH0 PUSH0 SWAP1 SLOAD SWAP1 PUSH2 0x100 EXP SWAP1 DIV PUSH20 0xFFFFFFFFFFFFFFFFFFFFFFFFFFFFFFFFFFFFFFFF AND DUP2 JUMP JUMPDEST PUSH0 PUSH20 0xFFFFFFFFFFFFFFFFFFFFFFFFFFFFFFFFFFFFFFFF DUP3 AND SWAP1 POP SWAP2 SWAP1 POP JUMP JUMPDEST PUSH0 DUP2 SWAP1 POP SWAP2 SWAP1 POP JUMP JUMPDEST PUSH0 PUSH2 0x353 PUSH2 0x34E PUSH2 0x349 DUP5 PUSH2 0x311 JUMP JUMPDEST PUSH2 0x330 JUMP JUMPDEST PUSH2 0x311 JUMP JUMPDEST SWAP1 POP SWAP2 SWAP1 POP JUMP JUMPDEST PUSH0 PUSH2 0x364 DUP3 PUSH2 0x339 JUMP JUMPDEST SWAP1 POP SWAP2 SWAP1 POP JUMP JUMPDEST PUSH0 PUSH2 0x375 DUP3 PUSH2 0x35A JUMP JUMPDEST SWAP1 POP SWAP2 SWAP1 POP JUMP JUMPDEST PUSH2 0x385 DUP2 PUSH2 0x36B JUMP JUMPDEST DUP3 MSTORE POP POP JUMP JUMPDEST PUSH0 PUSH1 0x20 DUP3 ADD SWAP1 POP PUSH2 0x39E PUSH0 DUP4 ADD DUP5 PUSH2 0x37C JUMP JUMPDEST SWAP3 SWAP2 POP POP JUMP JUMPDEST PUSH0 PUSH1 0x40 MLOAD SWAP1 POP SWAP1 JUMP JUMPDEST PUSH0 PUSH0 REVERT JUMPDEST PUSH0 PUSH0 REVERT JUMPDEST PUSH0 PUSH2 0x3BF DUP3 PUSH2 0x311 JUMP JUMPDEST SWAP1 POP SWAP2 SWAP1 POP JUMP JUMPDEST PUSH2 0x3CF DUP2 PUSH2 0x3B5 JUMP JUMPDEST DUP2 EQ PUSH2 0x3D9 JUMPI PUSH0 PUSH0 REVERT JUMPDEST POP JUMP JUMPDEST PUSH0 DUP2 CALLDATALOAD SWAP1 POP PUSH2 0x3EA DUP2 PUSH2 0x3C6 JUMP JUMPDEST SWAP3 SWAP2 POP POP JUMP JUMPDEST PUSH0 PUSH0 REVERT JUMPDEST PUSH0 PUSH0 REVERT JUMPDEST PUSH0 PUSH1 0x1F NOT PUSH1 0x1F DUP4 ADD AND SWAP1 POP SWAP2 SWAP1 POP JUMP JUMPDEST PUSH32 0x4E487B7100000000000000000000000000000000000000000000000000000000 PUSH0 MSTORE PUSH1 0x41 PUSH1 0x4 MSTORE PUSH1 0x24 PUSH0 REVERT JUMPDEST PUSH2 0x43E DUP3 PUSH2 0x3F8 JUMP JUMPDEST DUP2 ADD DUP2 DUP2 LT PUSH8 0xFFFFFFFFFFFFFFFF DUP3 GT OR ISZERO PUSH2 0x45D JUMPI PUSH2 0x45C PUSH2 0x408 JUMP JUMPDEST JUMPDEST DUP1 PUSH1 0x40 MSTORE POP POP POP JUMP JUMPDEST PUSH0 PUSH2 0x46F PUSH2 0x3A4 JUMP JUMPDEST SWAP1 POP PUSH2 0x47B DUP3 DUP3 PUSH2 0x435 JUMP JUMPDEST SWAP2 SWAP1 POP JUMP JUMPDEST PUSH0 PUSH8 0xFFFFFFFFFFFFFFFF DUP3 GT ISZERO PUSH2 0x49A JUMPI PUSH2 0x499 PUSH2 0x408 JUMP JUMPDEST JUMPDEST PUSH2 0x4A3 DUP3 PUSH2 0x3F8 JUMP JUMPDEST SWAP1 POP PUSH1 0x20 DUP2 ADD SWAP1 POP SWAP2 SWAP1 POP JUMP JUMPDEST DUP3 DUP2 DUP4 CALLDATACOPY PUSH0 DUP4 DUP4 ADD MSTORE POP POP POP JUMP JUMPDEST PUSH0 PUSH2 0x4D0 PUSH2 0x4CB DUP5 PUSH2 0x480 JUMP JUMPDEST PUSH2 0x466 JUMP JUMPDEST SWAP1 POP DUP3 DUP2 MSTORE PUSH1 0x20 DUP2 ADD DUP5 DUP5 DUP5 ADD GT ISZERO PUSH2 0x4EC JUMPI PUSH2 0x4EB PUSH2 0x3F4 JUMP JUMPDEST JUMPDEST PUSH2 0x4F7 DUP5 DUP3 DUP6 PUSH2 0x4B0 JUMP JUMPDEST POP SWAP4 SWAP3 POP POP POP JUMP JUMPDEST PUSH0 DUP3 PUSH1 0x1F DUP4 ADD SLT PUSH2 0x513 JUMPI PUSH2 0x512 PUSH2 0x3F0 JUMP JUMPDEST JUMPDEST DUP2 CALLDATALOAD PUSH2 0x523 DUP5 DUP3 PUSH1 0x20 DUP7 ADD PUSH2 0x4BE JUMP JUMPDEST SWAP2 POP POP SWAP3 SWAP2 POP POP JUMP JUMPDEST PUSH0 PUSH0 PUSH1 0x40 DUP4 DUP6 SUB SLT ISZERO PUSH2 0x542 JUMPI PUSH2 0x541 PUSH2 0x3AD JUMP JUMPDEST JUMPDEST PUSH0 PUSH2 0x54F DUP6 DUP3 DUP7 ADD PUSH2 0x3DC JUMP JUMPDEST SWAP3 POP POP PUSH1 0x20 DUP4 ADD CALLDATALOAD PUSH8 0xFFFFFFFFFFFFFFFF DUP2 GT ISZERO PUSH2 0x570 JUMPI PUSH2 0x56F PUSH2 0x3B1 JUMP JUMPDEST JUMPDEST PUSH2 0x57C DUP6 DUP3 DUP7 ADD PUSH2 0x4FF JUMP JUMPDEST SWAP2 POP POP SWAP3 POP SWAP3 SWAP1 POP JUMP JUMPDEST PUSH2 0x58F DUP2 PUSH2 0x3B5 JUMP JUMPDEST DUP3 MSTORE POP POP JUMP JUMPDEST PUSH0 PUSH1 0x20 DUP3 ADD SWAP1 POP PUSH2 0x5A8 PUSH0 DUP4 ADD DUP5 PUSH2 0x586 JUMP JUMPDEST SWAP3 SWAP2 POP POP JUMP JUMPDEST PUSH0 PUSH2 0x5B8 DUP3 PUSH2 0x35A JUMP JUMPDEST SWAP1 POP SWAP2 SWAP1 POP JUMP JUMPDEST PUSH2 0x5C8 DUP2 PUSH2 0x5AE JUMP JUMPDEST DUP3 MSTORE POP POP JUMP JUMPDEST PUSH0 PUSH1 0x20 DUP3 ADD SWAP1 POP PUSH2 0x5E1 PUSH0 DUP4 ADD DUP5 PUSH2 0x5BF JUMP JUMPDEST SWAP3 SWAP2 POP POP JUMP JUMPDEST PUSH0 DUP3 DUP3 MSTORE PUSH1 0x20 DUP3 ADD SWAP1 POP SWAP3 SWAP2 POP POP JUMP JUMPDEST PUSH32 0x4F6E6C792061646D696E00000000000000000000000000000000000000000000 PUSH0 DUP3 ADD MSTORE POP JUMP JUMPDEST PUSH0 PUSH2 0x62B PUSH1 0xA DUP4 PUSH2 0x5E7 JUMP JUMPDEST SWAP2 POP PUSH2 0x636 DUP3 PUSH2 0x5F7 JUMP JUMPDEST PUSH1 0x20 DUP3 ADD SWAP1 POP SWAP2 SWAP1 POP JUMP JUMPDEST PUSH0 PUSH1 0x20 DUP3 ADD SWAP1 POP DUP2 DUP2 SUB PUSH0 DUP4 ADD MSTORE PUSH2 0x658 DUP2 PUSH2 0x61F JUMP JUMPDEST SWAP1 POP SWAP2 SWAP1 POP JUMP JUMPDEST PUSH0 DUP2 MLOAD SWAP1 POP SWAP2 SWAP1 POP JUMP JUMPDEST DUP3 DUP2 DUP4 MCOPY PUSH0 DUP4 DUP4 ADD MSTORE POP POP POP JUMP JUMPDEST PUSH0 PUSH2 0x681 DUP3 PUSH2 0x65F JUMP JUMPDEST PUSH2 0x68B DUP2 DUP6 PUSH2 0x5E7 JUMP JUMPDEST SWAP4 POP PUSH2 0x69B DUP2 DUP6 PUSH1 0x20 DUP7 ADD PUSH2 0x669 JUMP JUMPDEST PUSH2 0x6A4 DUP2 PUSH2 0x3F8 JUMP JUMPDEST DUP5 ADD SWAP2 POP POP SWAP3 SWAP2 POP POP JUMP JUMPDEST PUSH0 PUSH1 0x20 DUP3 ADD SWAP1 POP DUP2 DUP2 SUB PUSH0 DUP4 ADD MSTORE PUSH2 0x6C7 DUP2 DUP5 PUSH2 0x677 JUMP JUMPDEST SWAP1 POP SWAP3 SWAP2 POP POP JUMP JUMPDEST PUSH0 DUP2 SWAP1 POP SWAP2 SWAP1 POP JUMP JUMPDEST PUSH2 0x6E1 DUP2 PUSH2 0x6CF JUMP JUMPDEST DUP2 EQ PUSH2 0x6EB JUMPI PUSH0 PUSH0 REVERT JUMPDEST POP JUMP JUMPDEST PUSH0 DUP2 MLOAD SWAP1 POP PUSH2 0x6FC DUP2 PUSH2 0x6D8 JUMP JUMPDEST SWAP3 SWAP2 POP POP JUMP JUMPDEST PUSH0 PUSH1 0x20 DUP3 DUP5 SUB SLT ISZERO PUSH2 0x717 JUMPI PUSH2 0x716 PUSH2 0x3AD JUMP JUMPDEST JUMPDEST PUSH0 PUSH2 0x724 DUP5 DUP3 DUP6 ADD PUSH2 0x6EE JUMP JUMPDEST SWAP2 POP POP SWAP3 SWAP2 POP POP JUMP JUMPDEST PUSH32 0x4E487B7100000000000000000000000000000000000000000000000000000000 PUSH0 MSTORE PUSH1 0x11 PUSH1 0x4 MSTORE PUSH1 0x24 PUSH0 REVERT JUMPDEST PUSH0 PUSH2 0x764 DUP3 PUSH2 0x6CF JUMP JUMPDEST SWAP2 POP PUSH2 0x76F DUP4 PUSH2 0x6CF JUMP JUMPDEST SWAP3 POP DUP3 DUP3 MUL PUSH2 0x77D DUP2 PUSH2 0x6CF JUMP JUMPDEST SWAP2 POP DUP3 DUP3 DIV DUP5 EQ DUP4 ISZERO OR PUSH2 0x794 JUMPI PUSH2 0x793 PUSH2 0x72D JUMP JUMPDEST JUMPDEST POP SWAP3 SWAP2 POP POP JUMP JUMPDEST PUSH2 0x7A4 DUP2 PUSH2 0x6CF JUMP JUMPDEST DUP3 MSTORE POP POP JUMP JUMPDEST PUSH0 PUSH1 0x40 DUP3 ADD SWAP1 POP PUSH2 0x7BD PUSH0 DUP4 ADD DUP6 PUSH2 0x586 JUMP JUMPDEST PUSH2 0x7CA PUSH1 0x20 DUP4 ADD DUP5 PUSH2 0x79B JUMP JUMPDEST SWAP4 SWAP3 POP POP POP JUMP JUMPDEST PUSH0 DUP2 ISZERO ISZERO SWAP1 POP SWAP2 SWAP1 POP JUMP JUMPDEST PUSH2 0x7E5 DUP2 PUSH2 0x7D1 JUMP JUMPDEST DUP2 EQ PUSH2 0x7EF JUMPI PUSH0 PUSH0 REVERT JUMPDEST POP JUMP JUMPDEST PUSH0 DUP2 MLOAD SWAP1 POP PUSH2 0x800 DUP2 PUSH2 0x7DC JUMP JUMPDEST SWAP3 SWAP2 POP POP JUMP JUMPDEST PUSH0 PUSH1 0x20 DUP3 DUP5 SUB SLT ISZERO PUSH2 0x81B JUMPI PUSH2 0x81A PUSH2 0x3AD JUMP JUMPDEST JUMPDEST PUSH0 PUSH2 0x828 DUP5 DUP3 DUP6 ADD PUSH2 0x7F2 JUMP JUMPDEST SWAP2 POP POP SWAP3 SWAP2 POP POP JUMP INVALID LOG2 PUSH5 0x6970667358 0x22 SLT KECCAK256 DATALOADN 0xDD70 SWAP13 CALLER POP 0xC6 0xC3 PREVRANDAO DUP1 0xA5 0x1F 0xCB 0xA8 PUSH21 0x2F199D1AF889987FC68C5053341B80EB5464736F6C PUSH4 0x4300081E STOP CALLER "
				},
				"gasEstimates": {
					"creation": {
						"codeDepositCost": "430200",
						"executionCost": "infinite",
						"totalCost": "infinite"
					},
					"external": {
						"admin()": "2530",
						"distributeReward(address,string)": "infinite",
						"policy()": "infinite",
						"token()": "infinite"
					}
				},
				"methodIdentifiers": {
					"admin()": "f851a440",
					"distributeReward(address,string)": "6c4be8ff",
					"policy()": "0505c8c9",
					"token()": "fc0c546a"
				}
			},
			"storageLayout": {
				"storage": [
					{
						"astId": 91,
						"contract": "contracts/RewardDistributor.sol:RewardDistributor",
						"label": "token",
						"offset": 0,
						"slot": "0",
						"type": "t_contract(IERC20)77"
					},
					{
						"astId": 94,
						"contract": "contracts/RewardDistributor.sol:RewardDistributor",
						"label": "policy",
						"offset": 0,
						"slot": "1",
						"type": "t_contract(IRewardPolicy)88"
					},
					{
						"astId": 96,
						"contract": "contracts/RewardDistributor.sol:RewardDistributor",
						"label": "admin",
						"offset": 0,
						"slot": "2",
						"type": "t_address"
					}
				],
				"types": {
					"t_address": {
						"encoding": "inplace",
						"label": "address",
						"numberOfBytes": "20"
					},
					"t_contract(IERC20)77": {
						"encoding": "inplace",
						"label": "contract IERC20",
						"numberOfBytes": "20"
					},
					"t_contract(IRewardPolicy)88": {
						"encoding": "inplace",
						"label": "contract IRewardPolicy",
						"numberOfBytes": "20"
					}
				}
			},
			"userdoc": {
				"kind": "user",
				"methods": {},
				"version": 1
			}
		}
	}
}