{
	"contracts/RewardPolicy.sol": {
		"RewardPolicy": {
			"abi": [
				{
					"inputs": [],
					"stateMutability": "nonpayable",
					"type": "constructor"
				},
				{
					"anonymous": false,
					"inputs": [
						{
							"indexed": false,
							"internalType": "string",
							"name": "rule",
							"type": "string"
						},
						{
							"indexed": false,
							"internalType": "uint256",
							"name": "value",
							"type": "uint256"
						}
					],
					"name": "RewardRuleUpdated",
					"type": "event"
				},
				{
					"inputs": [],
					"name": "admin",
					"outputs": [
						{
							"internalType": "address",
							"name": "",
							"type": "address"
						}
					],
					"stateMutability": "view",
					"type": "function"
				},
				{
					"inputs": [
						{
							"internalType": "string",
							"name": "rule",
							"type": "string"
						}
					],
					"name": "getRewardValue",
					"outputs": [
						{
							"internalType": "uint256",
							"name": "",
							"type": "uint256"
						}
					],
					"stateMutability": "view",
					"type": "function"
				},
				{
					"inputs": [
						{
							"internalType": "string",
							"name": "",
							"type": "string"
						}
					],
					"name": "rewardRules",
					"outputs": [
						{
							"internalType": "uint256",
							"name": "",
							"type": "uint256"
						}
					],
					"stateMutability": "view",
					"type": "function"
				},
				{
					"inputs": [
						{
							"internalType": "string",
							"name": "rule",
							"type": "string"
						},
						{
							"internalType": "uint256",
							"name": "value",
							"type": "uint256"
						}
					],
					"name": "updateRewardRule",
					"outputs": [],
					"stateMutability": "nonpayable",
					"type": "function"
				}
			],
			"devdoc": {
				"kind": "dev",
				"methods": {},
				"version": 1
			},
			"evm": {
				"assembly": "    /* \"contracts/RewardPolicy.sol\":60:750  contract RewardPolicy {... */\n  mstore(0x40, 0x80)\n    /* \"contracts/RewardPolicy.sol\":230:403  constructor() {... */\n  callvalue\n  dup1\n  iszero\n  tag_1\n  jumpi\n  revert(0x00, 0x00)\ntag_1:\n  pop\n    /* \"contracts/RewardPolicy.sol\":263:273  msg.sender */\n  caller\n    /* \"contracts/RewardPolicy.sol\":255:260  admin */\n  0x00\n  0x00\n    /* \"contracts/RewardPolicy.sol\":255:273  admin = msg.sender */\n  0x0100\n  exp\n  dup2\n  sload\n  dup2\n  0xffffffffffffffffffffffffffffffffffffffff\n  mul\n  not\n  and\n  swap1\n  dup4\n  0xffffffffffffffffffffffffffffffffffffffff\n  and\n  mul\n  or\n  swap1\n  sstore\n  pop\n    /* \"contracts/RewardPolicy.sol\":313:315  10 */\n  0x0a\n    /* \"contracts/RewardPolicy.sol\":284:295  rewardRules */\n  0x01\n    /* \"contracts/RewardPolicy.sol\":284:310  rewardRules[\"publication\"] */\n  mload(0x40)\n  tag_4\n  swap1\n  tag_5\n  jump\t// in\ntag_4:\n  swap1\n  dup2\n  mstore\n  0x20\n  add\n  mload(0x40)\n  dup1\n  swap2\n  sub\n  swap1\n  keccak256\n    /* \"contracts/RewardPolicy.sol\":284:315  rewardRules[\"publication\"] = 10 */\n  dup2\n  swap1\n  sstore\n  pop\n    /* \"contracts/RewardPolicy.sol\":355:356  5 */\n  0x05\n    /* \"contracts/RewardPolicy.sol\":326:337  rewardRules */\n  0x01\n    /* \"contracts/RewardPolicy.sol\":326:352  rewardRules[\"peer_review\"] */\n  mload(0x40)\n  tag_6\n  swap1\n  tag_7\n  jump\t// in\ntag_6:\n  swap1\n  dup2\n  mstore\n  0x20\n  add\n  mload(0x40)\n  dup1\n  swap2\n  sub\n  swap1\n  keccak256\n    /* \"contracts/RewardPolicy.sol\":326:356  rewardRules[\"peer_review\"] = 5 */\n  dup2\n  swap1\n  sstore\n  pop\n    /* \"contracts/RewardPolicy.sol\":394:395  8 */\n  0x08\n    /* \"contracts/RewardPolicy.sol\":367:378  rewardRules */\n  0x01\n    /* \"contracts/RewardPolicy.sol\":367:391  rewardRules[\"open_data\"] */\n  mload(0x40)\n  tag_8\n  swap1\n  tag_9\n  jump\t// in\ntag_8:\n  swap1\n  dup2\n  mstore\n  0x20\n  add\n  mload(0x40)\n  dup1\n  swap2\n  sub\n  swap1\n  keccak256\n    /* \"contracts/RewardPolicy.sol\":367:395  rewardRules[\"open_data\"] = 8 */\n  dup2\n  swap1\n  sstore\n  pop\n    /* \"contracts/RewardPolicy.sol\":60:750  contract RewardPolicy {... */\n  jump(tag_10)\n    /* \"#utility.yul\":7:155   */\ntag_11:\n    /* \"#utility.yul\":109:120   */\n  0x00\n    /* \"#utility.yul\":146:149   */\n  dup2\n    /* \"#utility.yul\":131:149   */\n  swap1\n  pop\n    /* \"#utility.yul\":7:155   */\n  swap3\n  swap2\n  pop\n  pop\n  jump\t// out\n    /* \"#utility.yul\":161:322   */\ntag_12:\n    /* \"#utility.yul\":301:314   */\n  0x7075626c69636174696f6e000000000000000000000000000000000000000000\n    /* \"#utility.yul\":297:298   */\n  0x00\n    /* \"#utility.yul\":289:295   */\n  dup3\n    /* \"#utility.yul\":285:299   */\n  add\n    /* \"#utility.yul\":278:315   */\n  mstore\n    /* \"#utility.yul\":161:322   */\n  pop\n  jump\t// out\n    /* \"#utility.yul\":328:730   */\ntag_13:\n    /* \"#utility.yul\":488:491   */\n  0x00\n    /* \"#utility.yul\":509:594   */\n  tag_22\n    /* \"#utility.yul\":591:593   */\n  0x0b\n    /* \"#utility.yul\":586:589   */\n  dup4\n    /* \"#utility.yul\":509:594   */\n  tag_11\n  jump\t// in\ntag_22:\n    /* \"#utility.yul\":502:594   */\n  swap2\n  pop\n    /* \"#utility.yul\":603:696   */\n  tag_23\n    /* \"#utility.yul\":692:695   */\n  dup3\n    /* \"#utility.yul\":603:696   */\n  tag_12\n  jump\t// in\ntag_23:\n    /* \"#utility.yul\":721:723   */\n  0x0b\n    /* \"#utility.yul\":716:719   */\n  dup3\n    /* \"#utility.yul\":712:724   */\n  add\n    /* \"#utility.yul\":705:724   */\n  swap1\n  pop\n    /* \"#utility.yul\":328:730   */\n  swap2\n  swap1\n  pop\n  jump\t// out\n    /* \"#utility.yul\":736:1117   */\ntag_5:\n    /* \"#utility.yul\":921:924   */\n  0x00\n    /* \"#utility.yul\":943:1091   */\n  tag_25\n    /* \"#utility.yul\":1087:1090   */\n  dup3\n    /* \"#utility.yul\":943:1091   */\n  tag_13\n  jump\t// in\ntag_25:\n    /* \"#utility.yul\":936:1091   */\n  swap2\n  pop\n    /* \"#utility.yul\":1108:1111   */\n  dup2\n    /* \"#utility.yul\":1101:1111   */\n  swap1\n  pop\n    /* \"#utility.yul\":736:1117   */\n  swap2\n  swap1\n  pop\n  jump\t// out\n    /* \"#utility.yul\":1123:1284   */\ntag_14:\n    /* \"#utility.yul\":1263:1276   */\n  0x706565725f726576696577000000000000000000000000000000000000000000\n    /* \"#utility.yul\":1259:1260   */\n  0x00\n    /* \"#utility.yul\":1251:1257   */\n  dup3\n    /* \"#utility.yul\":1247:1261   */\n  add\n    /* \"#utility.yul\":1240:1277   */\n  mstore\n    /* \"#utility.yul\":1123:1284   */\n  pop\n  jump\t// out\n    /* \"#utility.yul\":1290:1692   */\ntag_15:\n    /* \"#utility.yul\":1450:1453   */\n  0x00\n    /* \"#utility.yul\":1471:1556   */\n  tag_28\n    /* \"#utility.yul\":1553:1555   */\n  0x0b\n    /* \"#utility.yul\":1548:1551   */\n  dup4\n    /* \"#utility.yul\":1471:1556   */\n  tag_11\n  jump\t// in\ntag_28:\n    /* \"#utility.yul\":1464:1556   */\n  swap2\n  pop\n    /* \"#utility.yul\":1565:1658   */\n  tag_29\n    /* \"#utility.yul\":1654:1657   */\n  dup3\n    /* \"#utility.yul\":1565:1658   */\n  tag_14\n  jump\t// in\ntag_29:\n    /* \"#utility.yul\":1683:1685   */\n  0x0b\n    /* \"#utility.yul\":1678:1681   */\n  dup3\n    /* \"#utility.yul\":1674:1686   */\n  add\n    /* \"#utility.yul\":1667:1686   */\n  swap1\n  pop\n    /* \"#utility.yul\":1290:1692   */\n  swap2\n  swap1\n  pop\n  jump\t// out\n    /* \"#utility.yul\":1698:2079   */\ntag_7:\n    /* \"#utility.yul\":1883:1886   */\n  0x00\n    /* \"#utility.yul\":1905:2053   */\n  tag_31\n    /* \"#utility.yul\":2049:2052   */\n  dup3\n    /* \"#utility.yul\":1905:2053   */\n  tag_15\n  jump\t// in\ntag_31:\n    /* \"#utility.yul\":1898:2053   */\n  swap2\n  pop\n    /* \"#utility.yul\":2070:2073   */\n  dup2\n    /* \"#utility.yul\":2063:2073   */\n  swap1\n  pop\n    /* \"#utility.yul\":1698:2079   */\n  swap2\n  swap1\n  pop\n  jump\t// out\n    /* \"#utility.yul\":2085:2244   */\ntag_16:\n    /* \"#utility.yul\":2225:2236   */\n  0x6f70656e5f646174610000000000000000000000000000000000000000000000\n    /* \"#utility.yul\":2221:2222   */\n  0x00\n    /* \"#utility.yul\":2213:2219   */\n  dup3\n    /* \"#utility.yul\":2209:2223   */\n  add\n    /* \"#utility.yul\":2202:2237   */\n  mstore\n    /* \"#utility.yul\":2085:2244   */\n  pop\n  jump\t// out\n    /* \"#utility.yul\":2250:2650   */\ntag_17:\n    /* \"#utility.yul\":2410:2413   */\n  0x00\n    /* \"#utility.yul\":2431:2515   */\n  tag_34\n    /* \"#utility.yul\":2513:2514   */\n  0x09\n    /* \"#utility.yul\":2508:2511   */\n  dup4\n    /* \"#utility.yul\":2431:2515   */\n  tag_11\n  jump\t// in\ntag_34:\n    /* \"#utility.yul\":2424:2515   */\n  swap2\n  pop\n    /* \"#utility.yul\":2524:2617   */\n  tag_35\n    /* \"#utility.yul\":2613:2616   */\n  dup3\n    /* \"#utility.yul\":2524:2617   */\n  tag_16\n  jump\t// in\ntag_35:\n    /* \"#utility.yul\":2642:2643   */\n  0x09\n    /* \"#utility.yul\":2637:2640   */\n  dup3\n    /* \"#utility.yul\":2633:2644   */\n  add\n    /* \"#utility.yul\":2626:2644   */\n  swap1\n  pop\n    /* \"#utility.yul\":2250:2650   */\n  swap2\n  swap1\n  pop\n  jump\t// out\n    /* \"#utility.yul\":2656:3037   */\ntag_9:\n    /* \"#utility.yul\":2841:2844   */\n  0x00\n    /* \"#utility.yul\":2863:3011   */\n  tag_37\n    /* \"#utility.yul\":3007:3010   */\n  dup3\n    /* \"#utility.yul\":2863:3011   */\n  tag_17\n  jump\t// in\ntag_37:\n    /* \"#utility.yul\":2856:3011   */\n  swap2\n  pop\n    /* \"#utility.yul\":3028:3031   */\n  dup2\n    /* \"#utility.yul\":3021:3031   */\n  swap1\n  pop\n    /* \"#utility.yul\":2656:3037   */\n  swap2\n  swap1\n  pop\n  jump\t// out\n    /* \"contracts/RewardPolicy.sol\":60:750  contract RewardPolicy {... */\ntag_10:\n  dataSize(sub_0)\n  dup1\n  dataOffset(sub_0)\n  0x00\n  codecopy\n  0x00\n  return\nstop\n\nsub_0: assembly {\n        /* \"contracts/RewardPolicy.sol\":60:750  contract RewardPolicy {... */\n      mstore(0x40, 0x80)\n      callvalue\n      dup1\n      iszero\n      tag_1\n      jumpi\n      revert(0x00, 0x00)\n    tag_1:\n      pop\n      jumpi(tag_2, lt(calldatasize, 0x04))\n      shr(0xe0, calldataload(0x00))\n      dup1\n      0x6258d1b5\n      eq\n      tag_3\n      jumpi\n      dup1\n      0x7e564aeb\n      eq\n      tag_4\n      jumpi\n      dup1\n      0xa0fe927c\n      eq\n      tag_5\n      jumpi\n      dup1\n      0xf851a440\n      eq\n      tag_6\n      jumpi\n    tag_2:\n      revert(0x00, 0x00)\n        /* \"contracts/RewardPolicy.sol\":411:622  function updateRewardRule(string memory rule, uint256 value) public {... */\n    tag_3:\n      tag_7\n      0x04\n      dup1\n      calldatasize\n      sub\n      dup2\n      add\n      swap1\n      tag_8\n      swap2\n      swap1\n      tag_9\n      jump\t// in\n    tag_8:\n      tag_10\n      jump\t// in\n    tag_7:\n      stop\n        /* \"contracts/RewardPolicy.sol\":630:747  function getRewardValue(string memory rule) public view returns (uint256) {... */\n    tag_4:\n      tag_11\n      0x04\n      dup1\n      calldatasize\n      sub\n      dup2\n      add\n      swap1\n      tag_12\n      swap2\n      swap1\n      tag_13\n      jump\t// in\n    tag_12:\n      tag_14\n      jump\t// in\n    tag_11:\n      mload(0x40)\n      tag_15\n      swap2\n      swap1\n      tag_16\n      jump\t// in\n    tag_15:\n      mload(0x40)\n      dup1\n      swap2\n      sub\n      swap1\n      return\n        /* \"contracts/RewardPolicy.sol\":116:161  mapping(string => uint256) public rewardRules */\n    tag_5:\n      tag_17\n      0x04\n      dup1\n      calldatasize\n      sub\n      dup2\n      add\n      swap1\n      tag_18\n      swap2\n      swap1\n      tag_13\n      jump\t// in\n    tag_18:\n      tag_19\n      jump\t// in\n    tag_17:\n      mload(0x40)\n      tag_20\n      swap2\n      swap1\n      tag_16\n      jump\t// in\n    tag_20:\n      mload(0x40)\n      dup1\n      swap2\n      sub\n      swap1\n      return\n        /* \"contracts/RewardPolicy.sol\":89:109  address public admin */\n    tag_6:\n      tag_21\n      tag_22\n      jump\t// in\n    tag_21:\n      mload(0x40)\n      tag_23\n      swap2\n      swap1\n      tag_24\n      jump\t// in\n    tag_23:\n      mload(0x40)\n      dup1\n      swap2\n      sub\n      swap1\n      return\n        /* \"contracts/RewardPolicy.sol\":411:622  function updateRewardRule(string memory rule, uint256 value) public {... */\n    tag_10:\n        /* \"contracts/RewardPolicy.sol\":512:517  admin */\n      0x00\n      0x00\n      swap1\n      sload\n      swap1\n      0x0100\n      exp\n      swap1\n      div\n      0xffffffffffffffffffffffffffffffffffffffff\n      and\n        /* \"contracts/RewardPolicy.sol\":498:517  msg.sender == admin */\n      0xffffffffffffffffffffffffffffffffffffffff\n      and\n        /* \"contracts/RewardPolicy.sol\":498:508  msg.sender */\n      caller\n        /* \"contracts/RewardPolicy.sol\":498:517  msg.sender == admin */\n      0xffffffffffffffffffffffffffffffffffffffff\n      and\n      eq\n        /* \"contracts/RewardPolicy.sol\":490:532  require(msg.sender == admin, \"Only admin\") */\n      tag_26\n      jumpi\n      mload(0x40)\n      0x08c379a000000000000000000000000000000000000000000000000000000000\n      dup2\n      mstore\n      0x04\n      add\n      tag_27\n      swap1\n      tag_28\n      jump\t// in\n    tag_27:\n      mload(0x40)\n      dup1\n      swap2\n      sub\n      swap1\n      revert\n    tag_26:\n        /* \"contracts/RewardPolicy.sol\":563:568  value */\n      dup1\n        /* \"contracts/RewardPolicy.sol\":543:554  rewardRules */\n      0x01\n        /* \"contracts/RewardPolicy.sol\":555:559  rule */\n      dup4\n        /* \"contracts/RewardPolicy.sol\":543:560  rewardRules[rule] */\n      mload(0x40)\n      tag_29\n      swap2\n      swap1\n      tag_30\n      jump\t// in\n    tag_29:\n      swap1\n      dup2\n      mstore\n      0x20\n      add\n      mload(0x40)\n      dup1\n      swap2\n      sub\n      swap1\n      keccak256\n        /* \"contracts/RewardPolicy.sol\":543:568  rewardRules[rule] = value */\n      dup2\n      swap1\n      sstore\n      pop\n        /* \"contracts/RewardPolicy.sol\":584:614  RewardRuleUpdated(rule, value) */\n      0xc73b0ceb71f780b48228f4259d159dd22611ee55308b66356c2b6e3e8af61611\n        /* \"contracts/RewardPolicy.sol\":602:606  rule */\n      dup3\n        /* \"contracts/RewardPolicy.sol\":608:613  value */\n      dup3\n        /* \"contracts/RewardPolicy.sol\":584:614  RewardRuleUpdated(rule, value) */\n      mload(0x40)\n      tag_31\n      swap3\n      swap2\n      swap1\n      tag_32\n      jump\t// in\n    tag_31:\n      mload(0x40)\n      dup1\n      swap2\n      sub\n      swap1\n      log1\n        /* \"contracts/RewardPolicy.sol\":411:622  function updateRewardRule(string memory rule, uint256 value) public {... */\n      pop\n      pop\n      jump\t// out\n        /* \"contracts/RewardPolicy.sol\":630:747  function getRewardValue(string memory rule) public view returns (uint256) {... */\n    tag_14:\n        /* \"contracts/RewardPolicy.sol\":695:702  uint256 */\n      0x00\n        /* \"contracts/RewardPolicy.sol\":722:733  rewardRules */\n      0x01\n        /* \"contracts/RewardPolicy.sol\":734:738  rule */\n      dup3\n        /* \"contracts/RewardPolicy.sol\":722:739  rewardRules[rule] */\n      mload(0x40)\n      tag_34\n      swap2\n      swap1\n      tag_30\n      jump\t// in\n    tag_34:\n      swap1\n      dup2\n      mstore\n      0x20\n      add\n      mload(0x40)\n      dup1\n      swap2\n      sub\n      swap1\n      keccak256\n      sload\n        /* \"contracts/RewardPolicy.sol\":715:739  return rewardRules[rule] */\n      swap1\n      pop\n        /* \"contracts/RewardPolicy.sol\":630:747  function getRewardValue(string memory rule) public view returns (uint256) {... */\n      swap2\n      swap1\n      pop\n      jump\t// out\n        /* \"contracts/RewardPolicy.sol\":116:161  mapping(string => uint256) public rewardRules */\n    tag_19:\n      0x01\n      dup2\n      dup1\n      mload\n      0x20\n      dup2\n      add\n      dup3\n      add\n      dup1\n      mload\n      dup5\n      dup3\n      mstore\n      0x20\n      dup4\n      add\n      0x20\n      dup6\n      add\n      keccak256\n      dup2\n      dup4\n      mstore\n      dup1\n      swap6\n      pop\n      pop\n      pop\n      pop\n      pop\n      pop\n      0x00\n      swap2\n      pop\n      swap1\n      pop\n      sload\n      dup2\n      jump\t// out\n        /* \"contracts/RewardPolicy.sol\":89:109  address public admin */\n    tag_22:\n      0x00\n      0x00\n      swap1\n      sload\n      swap1\n      0x0100\n      exp\n      swap1\n      div\n      0xffffffffffffffffffffffffffffffffffffffff\n      and\n      dup2\n      jump\t// out\n        /* \"#utility.yul\":7:82   */\n    tag_35:\n        /* \"#utility.yul\":40:46   */\n      0x00\n        /* \"#utility.yul\":73:75   */\n      0x40\n        /* \"#utility.yul\":67:76   */\n      mload\n        /* \"#utility.yul\":57:76   */\n      swap1\n      pop\n        /* \"#utility.yul\":7:82   */\n      swap1\n      jump\t// out\n        /* \"#utility.yul\":88:205   */\n    tag_36:\n        /* \"#utility.yul\":197:198   */\n      0x00\n        /* \"#utility.yul\":194:195   */\n      0x00\n        /* \"#utility.yul\":187:199   */\n      revert\n        /* \"#utility.yul\":211:328   */\n    tag_37:\n        /* \"#utility.yul\":320:321   */\n      0x00\n        /* \"#utility.yul\":317:318   */\n      0x00\n        /* \"#utility.yul\":310:322   */\n      revert\n        /* \"#utility.yul\":334:451   */\n    tag_38:\n        /* \"#utility.yul\":443:444   */\n      0x00\n        /* \"#utility.yul\":440:441   */\n      0x00\n        /* \"#utility.yul\":433:445   */\n      revert\n        /* \"#utility.yul\":457:574   */\n    tag_39:\n        /* \"#utility.yul\":566:567   */\n      0x00\n        /* \"#utility.yul\":563:564   */\n      0x00\n        /* \"#utility.yul\":556:568   */\n      revert\n        /* \"#utility.yul\":580:682   */\n    tag_40:\n        /* \"#utility.yul\":621:627   */\n      0x00\n        /* \"#utility.yul\":672:674   */\n      0x1f\n        /* \"#utility.yul\":668:675   */\n      not\n        /* \"#utility.yul\":663:665   */\n      0x1f\n        /* \"#utility.yul\":656:661   */\n      dup4\n        /* \"#utility.yul\":652:666   */\n      add\n        /* \"#utility.yul\":648:676   */\n      and\n        /* \"#utility.yul\":638:676   */\n      swap1\n      pop\n        /* \"#utility.yul\":580:682   */\n      swap2\n      swap1\n      pop\n      jump\t// out\n        /* \"#utility.yul\":688:868   */\n    tag_41:\n        /* \"#utility.yul\":736:813   */\n      0x4e487b7100000000000000000000000000000000000000000000000000000000\n        /* \"#utility.yul\":733:734   */\n      0x00\n        /* \"#utility.yul\":726:814   */\n      mstore\n        /* \"#utility.yul\":833:837   */\n      0x41\n        /* \"#utility.yul\":830:831   */\n      0x04\n        /* \"#utility.yul\":823:838   */\n      mstore\n        /* \"#utility.yul\":857:861   */\n      0x24\n        /* \"#utility.yul\":854:855   */\n      0x00\n        /* \"#utility.yul\":847:862   */\n      revert\n        /* \"#utility.yul\":874:1155   */\n    tag_42:\n        /* \"#utility.yul\":957:984   */\n      tag_72\n        /* \"#utility.yul\":979:983   */\n      dup3\n        /* \"#utility.yul\":957:984   */\n      tag_40\n      jump\t// in\n    tag_72:\n        /* \"#utility.yul\":949:955   */\n      dup2\n        /* \"#utility.yul\":945:985   */\n      add\n        /* \"#utility.yul\":1087:1093   */\n      dup2\n        /* \"#utility.yul\":1075:1085   */\n      dup2\n        /* \"#utility.yul\":1072:1094   */\n      lt\n        /* \"#utility.yul\":1051:1069   */\n      0xffffffffffffffff\n        /* \"#utility.yul\":1039:1049   */\n      dup3\n        /* \"#utility.yul\":1036:1070   */\n      gt\n        /* \"#utility.yul\":1033:1095   */\n      or\n        /* \"#utility.yul\":1030:1118   */\n      iszero\n      tag_73\n      jumpi\n        /* \"#utility.yul\":1098:1116   */\n      tag_74\n      tag_41\n      jump\t// in\n    tag_74:\n        /* \"#utility.yul\":1030:1118   */\n    tag_73:\n        /* \"#utility.yul\":1138:1148   */\n      dup1\n        /* \"#utility.yul\":1134:1136   */\n      0x40\n        /* \"#utility.yul\":1127:1149   */\n      mstore\n        /* \"#utility.yul\":917:1155   */\n      pop\n        /* \"#utility.yul\":874:1155   */\n      pop\n      pop\n      jump\t// out\n        /* \"#utility.yul\":1161:1290   */\n    tag_43:\n        /* \"#utility.yul\":1195:1201   */\n      0x00\n        /* \"#utility.yul\":1222:1242   */\n      tag_76\n      tag_35\n      jump\t// in\n    tag_76:\n        /* \"#utility.yul\":1212:1242   */\n      swap1\n      pop\n        /* \"#utility.yul\":1251:1284   */\n      tag_77\n        /* \"#utility.yul\":1279:1283   */\n      dup3\n        /* \"#utility.yul\":1271:1277   */\n      dup3\n        /* \"#utility.yul\":1251:1284   */\n      tag_42\n      jump\t// in\n    tag_77:\n        /* \"#utility.yul\":1161:1290   */\n      swap2\n      swap1\n      pop\n      jump\t// out\n        /* \"#utility.yul\":1296:1604   */\n    tag_44:\n        /* \"#utility.yul\":1358:1362   */\n      0x00\n        /* \"#utility.yul\":1448:1466   */\n      0xffffffffffffffff\n        /* \"#utility.yul\":1440:1446   */\n      dup3\n        /* \"#utility.yul\":1437:1467   */\n      gt\n        /* \"#utility.yul\":1434:1490   */\n      iszero\n      tag_79\n      jumpi\n        /* \"#utility.yul\":1470:1488   */\n      tag_80\n      tag_41\n      jump\t// in\n    tag_80:\n        /* \"#utility.yul\":1434:1490   */\n    tag_79:\n        /* \"#utility.yul\":1508:1537   */\n      tag_81\n        /* \"#utility.yul\":1530:1536   */\n      dup3\n        /* \"#utility.yul\":1508:1537   */\n      tag_40\n      jump\t// in\n    tag_81:\n        /* \"#utility.yul\":1500:1537   */\n      swap1\n      pop\n        /* \"#utility.yul\":1592:1596   */\n      0x20\n        /* \"#utility.yul\":1586:1590   */\n      dup2\n        /* \"#utility.yul\":1582:1597   */\n      add\n        /* \"#utility.yul\":1574:1597   */\n      swap1\n      pop\n        /* \"#utility.yul\":1296:1604   */\n      swap2\n      swap1\n      pop\n      jump\t// out\n        /* \"#utility.yul\":1610:1758   */\n    tag_45:\n        /* \"#utility.yul\":1708:1714   */\n      dup3\n        /* \"#utility.yul\":1703:1706   */\n      dup2\n        /* \"#utility.yul\":1698:1701   */\n      dup4\n        /* \"#utility.yul\":1685:1715   */\n      calldatacopy\n        /* \"#utility.yul\":1749:1750   */\n      0x00\n        /* \"#utility.yul\":1740:1746   */\n      dup4\n        /* \"#utility.yul\":1735:1738   */\n      dup4\n        /* \"#utility.yul\":1731:1747   */\n      add\n        /* \"#utility.yul\":1724:1751   */\n      mstore\n        /* \"#utility.yul\":1610:1758   */\n      pop\n      pop\n      pop\n      jump\t// out\n        /* \"#utility.yul\":1764:2189   */\n    tag_46:\n        /* \"#utility.yul\":1842:1847   */\n      0x00\n        /* \"#utility.yul\":1867:1933   */\n      tag_84\n        /* \"#utility.yul\":1883:1932   */\n      tag_85\n        /* \"#utility.yul\":1925:1931   */\n      dup5\n        /* \"#utility.yul\":1883:1932   */\n      tag_44\n      jump\t// in\n    tag_85:\n        /* \"#utility.yul\":1867:1933   */\n      tag_43\n      jump\t// in\n    tag_84:\n        /* \"#utility.yul\":1858:1933   */\n      swap1\n      pop\n        /* \"#utility.yul\":1956:1962   */\n      dup3\n        /* \"#utility.yul\":1949:1954   */\n      dup2\n        /* \"#utility.yul\":1942:1963   */\n      mstore\n        /* \"#utility.yul\":1994:1998   */\n      0x20\n        /* \"#utility.yul\":1987:1992   */\n      dup2\n        /* \"#utility.yul\":1983:1999   */\n      add\n        /* \"#utility.yul\":2032:2035   */\n      dup5\n        /* \"#utility.yul\":2023:2029   */\n      dup5\n        /* \"#utility.yul\":2018:2021   */\n      dup5\n        /* \"#utility.yul\":2014:2030   */\n      add\n        /* \"#utility.yul\":2011:2036   */\n      gt\n        /* \"#utility.yul\":2008:2120   */\n      iszero\n      tag_86\n      jumpi\n        /* \"#utility.yul\":2039:2118   */\n      tag_87\n      tag_39\n      jump\t// in\n    tag_87:\n        /* \"#utility.yul\":2008:2120   */\n    tag_86:\n        /* \"#utility.yul\":2129:2183   */\n      tag_88\n        /* \"#utility.yul\":2176:2182   */\n      dup5\n        /* \"#utility.yul\":2171:2174   */\n      dup3\n        /* \"#utility.yul\":2166:2169   */\n      dup6\n        /* \"#utility.yul\":2129:2183   */\n      tag_45\n      jump\t// in\n    tag_88:\n        /* \"#utility.yul\":1848:2189   */\n      pop\n        /* \"#utility.yul\":1764:2189   */\n      swap4\n      swap3\n      pop\n      pop\n      pop\n      jump\t// out\n        /* \"#utility.yul\":2209:2549   */\n    tag_47:\n        /* \"#utility.yul\":2265:2270   */\n      0x00\n        /* \"#utility.yul\":2314:2317   */\n      dup3\n        /* \"#utility.yul\":2307:2311   */\n      0x1f\n        /* \"#utility.yul\":2299:2305   */\n      dup4\n        /* \"#utility.yul\":2295:2312   */\n      add\n        /* \"#utility.yul\":2291:2318   */\n      slt\n        /* \"#utility.yul\":2281:2403   */\n      tag_90\n      jumpi\n        /* \"#utility.yul\":2322:2401   */\n      tag_91\n      tag_38\n      jump\t// in\n    tag_91:\n        /* \"#utility.yul\":2281:2403   */\n    tag_90:\n        /* \"#utility.yul\":2439:2445   */\n      dup2\n        /* \"#utility.yul\":2426:2446   */\n      calldataload\n        /* \"#utility.yul\":2464:2543   */\n      tag_92\n        /* \"#utility.yul\":2539:2542   */\n      dup5\n        /* \"#utility.yul\":2531:2537   */\n      dup3\n        /* \"#utility.yul\":2524:2528   */\n      0x20\n        /* \"#utility.yul\":2516:2522   */\n      dup7\n        /* \"#utility.yul\":2512:2529   */\n      add\n        /* \"#utility.yul\":2464:2543   */\n      tag_46\n      jump\t// in\n    tag_92:\n        /* \"#utility.yul\":2455:2543   */\n      swap2\n      pop\n        /* \"#utility.yul\":2271:2549   */\n      pop\n        /* \"#utility.yul\":2209:2549   */\n      swap3\n      swap2\n      pop\n      pop\n      jump\t// out\n        /* \"#utility.yul\":2555:2632   */\n    tag_48:\n        /* \"#utility.yul\":2592:2599   */\n      0x00\n        /* \"#utility.yul\":2621:2626   */\n      dup2\n        /* \"#utility.yul\":2610:2626   */\n      swap1\n      pop\n        /* \"#utility.yul\":2555:2632   */\n      swap2\n      swap1\n      pop\n      jump\t// out\n        /* \"#utility.yul\":2638:2760   */\n    tag_49:\n        /* \"#utility.yul\":2711:2735   */\n      tag_95\n        /* \"#utility.yul\":2729:2734   */\n      dup2\n        /* \"#utility.yul\":2711:2735   */\n      tag_48\n      jump\t// in\n    tag_95:\n        /* \"#utility.yul\":2704:2709   */\n      dup2\n        /* \"#utility.yul\":2701:2736   */\n      eq\n        /* \"#utility.yul\":2691:2754   */\n      tag_96\n      jumpi\n        /* \"#utility.yul\":2750:2751   */\n      0x00\n        /* \"#utility.yul\":2747:2748   */\n      0x00\n        /* \"#utility.yul\":2740:2752   */\n      revert\n        /* \"#utility.yul\":2691:2754   */\n    tag_96:\n        /* \"#utility.yul\":2638:2760   */\n      pop\n      jump\t// out\n        /* \"#utility.yul\":2766:2905   */\n    tag_50:\n        /* \"#utility.yul\":2812:2817   */\n      0x00\n        /* \"#utility.yul\":2850:2856   */\n      dup2\n        /* \"#utility.yul\":2837:2857   */\n      calldataload\n        /* \"#utility.yul\":2828:2857   */\n      swap1\n      pop\n        /* \"#utility.yul\":2866:2899   */\n      tag_98\n        /* \"#utility.yul\":2893:2898   */\n      dup2\n        /* \"#utility.yul\":2866:2899   */\n      tag_49\n      jump\t// in\n    tag_98:\n        /* \"#utility.yul\":2766:2905   */\n      swap3\n      swap2\n      pop\n      pop\n      jump\t// out\n        /* \"#utility.yul\":2911:3565   */\n    tag_9:\n        /* \"#utility.yul\":2989:2995   */\n      0x00\n        /* \"#utility.yul\":2997:3003   */\n      0x00\n        /* \"#utility.yul\":3046:3048   */\n      0x40\n        /* \"#utility.yul\":3034:3043   */\n      dup4\n        /* \"#utility.yul\":3025:3032   */\n      dup6\n        /* \"#utility.yul\":3021:3044   */\n      sub\n        /* \"#utility.yul\":3017:3049   */\n      slt\n        /* \"#utility.yul\":3014:3133   */\n      iszero\n      tag_100\n      jumpi\n        /* \"#utility.yul\":3052:3131   */\n      tag_101\n      tag_36\n      jump\t// in\n    tag_101:\n        /* \"#utility.yul\":3014:3133   */\n    tag_100:\n        /* \"#utility.yul\":3200:3201   */\n      0x00\n        /* \"#utility.yul\":3189:3198   */\n      dup4\n        /* \"#utility.yul\":3185:3202   */\n      add\n        /* \"#utility.yul\":3172:3203   */\n      calldataload\n        /* \"#utility.yul\":3230:3248   */\n      0xffffffffffffffff\n        /* \"#utility.yul\":3222:3228   */\n      dup2\n        /* \"#utility.yul\":3219:3249   */\n      gt\n        /* \"#utility.yul\":3216:3333   */\n      iszero\n      tag_102\n      jumpi\n        /* \"#utility.yul\":3252:3331   */\n      tag_103\n      tag_37\n      jump\t// in\n    tag_103:\n        /* \"#utility.yul\":3216:3333   */\n    tag_102:\n        /* \"#utility.yul\":3357:3420   */\n      tag_104\n        /* \"#utility.yul\":3412:3419   */\n      dup6\n        /* \"#utility.yul\":3403:3409   */\n      dup3\n        /* \"#utility.yul\":3392:3401   */\n      dup7\n        /* \"#utility.yul\":3388:3410   */\n      add\n        /* \"#utility.yul\":3357:3420   */\n      tag_47\n      jump\t// in\n    tag_104:\n        /* \"#utility.yul\":3347:3420   */\n      swap3\n      pop\n        /* \"#utility.yul\":3143:3430   */\n      pop\n        /* \"#utility.yul\":3469:3471   */\n      0x20\n        /* \"#utility.yul\":3495:3548   */\n      tag_105\n        /* \"#utility.yul\":3540:3547   */\n      dup6\n        /* \"#utility.yul\":3531:3537   */\n      dup3\n        /* \"#utility.yul\":3520:3529   */\n      dup7\n        /* \"#utility.yul\":3516:3538   */\n      add\n        /* \"#utility.yul\":3495:3548   */\n      tag_50\n      jump\t// in\n    tag_105:\n        /* \"#utility.yul\":3485:3548   */\n      swap2\n      pop\n        /* \"#utility.yul\":3440:3558   */\n      pop\n        /* \"#utility.yul\":2911:3565   */\n      swap3\n      pop\n      swap3\n      swap1\n      pop\n      jump\t// out\n        /* \"#utility.yul\":3571:4080   */\n    tag_13:\n        /* \"#utility.yul\":3640:3646   */\n      0x00\n        /* \"#utility.yul\":3689:3691   */\n      0x20\n        /* \"#utility.yul\":3677:3686   */\n      dup3\n        /* \"#utility.yul\":3668:3675   */\n      dup5\n        /* \"#utility.yul\":3664:3687   */\n      sub\n        /* \"#utility.yul\":3660:3692   */\n      slt\n        /* \"#utility.yul\":3657:3776   */\n      iszero\n      tag_107\n      jumpi\n        /* \"#utility.yul\":3695:3774   */\n      tag_108\n      tag_36\n      jump\t// in\n    tag_108:\n        /* \"#utility.yul\":3657:3776   */\n    tag_107:\n        /* \"#utility.yul\":3843:3844   */\n      0x00\n        /* \"#utility.yul\":3832:3841   */\n      dup3\n        /* \"#utility.yul\":3828:3845   */\n      add\n        /* \"#utility.yul\":3815:3846   */\n      calldataload\n        /* \"#utility.yul\":3873:3891   */\n      0xffffffffffffffff\n        /* \"#utility.yul\":3865:3871   */\n      dup2\n        /* \"#utility.yul\":3862:3892   */\n      gt\n        /* \"#utility.yul\":3859:3976   */\n      iszero\n      tag_109\n      jumpi\n        /* \"#utility.yul\":3895:3974   */\n      tag_110\n      tag_37\n      jump\t// in\n    tag_110:\n        /* \"#utility.yul\":3859:3976   */\n    tag_109:\n        /* \"#utility.yul\":4000:4063   */\n      tag_111\n        /* \"#utility.yul\":4055:4062   */\n      dup5\n        /* \"#utility.yul\":4046:4052   */\n      dup3\n        /* \"#utility.yul\":4035:4044   */\n      dup6\n        /* \"#utility.yul\":4031:4053   */\n      add\n        /* \"#utility.yul\":4000:4063   */\n      tag_47\n      jump\t// in\n    tag_111:\n        /* \"#utility.yul\":3990:4063   */\n      swap2\n      pop\n        /* \"#utility.yul\":3786:4073   */\n      pop\n        /* \"#utility.yul\":3571:4080   */\n      swap3\n      swap2\n      pop\n      pop\n      jump\t// out\n        /* \"#utility.yul\":4086:4204   */\n    tag_51:\n        /* \"#utility.yul\":4173:4197   */\n      tag_113\n        /* \"#utility.yul\":4191:4196   */\n      dup2\n        /* \"#utility.yul\":4173:4197   */\n      tag_48\n      jump\t// in\n    tag_113:\n        /* \"#utility.yul\":4168:4171   */\n      dup3\n        /* \"#utility.yul\":4161:4198   */\n      mstore\n        /* \"#utility.yul\":4086:4204   */\n      pop\n      pop\n      jump\t// out\n        /* \"#utility.yul\":4210:4432   */\n    tag_16:\n        /* \"#utility.yul\":4303:4307   */\n      0x00\n        /* \"#utility.yul\":4341:4343   */\n      0x20\n        /* \"#utility.yul\":4330:4339   */\n      dup3\n        /* \"#utility.yul\":4326:4344   */\n      add\n        /* \"#utility.yul\":4318:4344   */\n      swap1\n      pop\n        /* \"#utility.yul\":4354:4425   */\n      tag_115\n        /* \"#utility.yul\":4422:4423   */\n      0x00\n        /* \"#utility.yul\":4411:4420   */\n      dup4\n        /* \"#utility.yul\":4407:4424   */\n      add\n        /* \"#utility.yul\":4398:4404   */\n      dup5\n        /* \"#utility.yul\":4354:4425   */\n      tag_51\n      jump\t// in\n    tag_115:\n        /* \"#utility.yul\":4210:4432   */\n      swap3\n      swap2\n      pop\n      pop\n      jump\t// out\n        /* \"#utility.yul\":4438:4564   */\n    tag_52:\n        /* \"#utility.yul\":4475:4482   */\n      0x00\n        /* \"#utility.yul\":4515:4557   */\n      0xffffffffffffffffffffffffffffffffffffffff\n        /* \"#utility.yul\":4508:4513   */\n      dup3\n        /* \"#utility.yul\":4504:4558   */\n      and\n        /* \"#utility.yul\":4493:4558   */\n      swap1\n      pop\n        /* \"#utility.yul\":4438:4564   */\n      swap2\n      swap1\n      pop\n      jump\t// out\n        /* \"#utility.yul\":4570:4666   */\n    tag_53:\n        /* \"#utility.yul\":4607:4614   */\n      0x00\n        /* \"#utility.yul\":4636:4660   */\n      tag_118\n        /* \"#utility.yul\":4654:4659   */\n      dup3\n        /* \"#utility.yul\":4636:4660   */\n      tag_52\n      jump\t// in\n    tag_118:\n        /* \"#utility.yul\":4625:4660   */\n      swap1\n      pop\n        /* \"#utility.yul\":4570:4666   */\n      swap2\n      swap1\n      pop\n      jump\t// out\n        /* \"#utility.yul\":4672:4790   */\n    tag_54:\n        /* \"#utility.yul\":4759:4783   */\n      tag_120\n        /* \"#utility.yul\":4777:4782   */\n      dup2\n        /* \"#utility.yul\":4759:4783   */\n      tag_53\n      jump\t// in\n    tag_120:\n        /* \"#utility.yul\":4754:4757   */\n      dup3\n        /* \"#utility.yul\":4747:4784   */\n      mstore\n        /* \"#utility.yul\":4672:4790   */\n      pop\n      pop\n      jump\t// out\n        /* \"#utility.yul\":4796:5018   */\n    tag_24:\n        /* \"#utility.yul\":4889:4893   */\n      0x00\n        /* \"#utility.yul\":4927:4929   */\n      0x20\n        /* \"#utility.yul\":4916:4925   */\n      dup3\n        /* \"#utility.yul\":4912:4930   */\n      add\n        /* \"#utility.yul\":4904:4930   */\n      swap1\n      pop\n        /* \"#utility.yul\":4940:5011   */\n      tag_122\n        /* \"#utility.yul\":5008:5009   */\n      0x00\n        /* \"#utility.yul\":4997:5006   */\n      dup4\n        /* \"#utility.yul\":4993:5010   */\n      add\n        /* \"#utility.yul\":4984:4990   */\n      dup5\n        /* \"#utility.yul\":4940:5011   */\n      tag_54\n      jump\t// in\n    tag_122:\n        /* \"#utility.yul\":4796:5018   */\n      swap3\n      swap2\n      pop\n      pop\n      jump\t// out\n        /* \"#utility.yul\":5024:5193   */\n    tag_55:\n        /* \"#utility.yul\":5108:5119   */\n      0x00\n        /* \"#utility.yul\":5142:5148   */\n      dup3\n        /* \"#utility.yul\":5137:5140   */\n      dup3\n        /* \"#utility.yul\":5130:5149   */\n      mstore\n        /* \"#utility.yul\":5182:5186   */\n      0x20\n        /* \"#utility.yul\":5177:5180   */\n      dup3\n        /* \"#utility.yul\":5173:5187   */\n      add\n        /* \"#utility.yul\":5158:5187   */\n      swap1\n      pop\n        /* \"#utility.yul\":5024:5193   */\n      swap3\n      swap2\n      pop\n      pop\n      jump\t// out\n        /* \"#utility.yul\":5199:5359   */\n    tag_56:\n        /* \"#utility.yul\":5339:5351   */\n      0x4f6e6c792061646d696e00000000000000000000000000000000000000000000\n        /* \"#utility.yul\":5335:5336   */\n      0x00\n        /* \"#utility.yul\":5327:5333   */\n      dup3\n        /* \"#utility.yul\":5323:5337   */\n      add\n        /* \"#utility.yul\":5316:5352   */\n      mstore\n        /* \"#utility.yul\":5199:5359   */\n      pop\n      jump\t// out\n        /* \"#utility.yul\":5365:5731   */\n    tag_57:\n        /* \"#utility.yul\":5507:5510   */\n      0x00\n        /* \"#utility.yul\":5528:5595   */\n      tag_126\n        /* \"#utility.yul\":5592:5594   */\n      0x0a\n        /* \"#utility.yul\":5587:5590   */\n      dup4\n        /* \"#utility.yul\":5528:5595   */\n      tag_55\n      jump\t// in\n    tag_126:\n        /* \"#utility.yul\":5521:5595   */\n      swap2\n      pop\n        /* \"#utility.yul\":5604:5697   */\n      tag_127\n        /* \"#utility.yul\":5693:5696   */\n      dup3\n        /* \"#utility.yul\":5604:5697   */\n      tag_56\n      jump\t// in\n    tag_127:\n        /* \"#utility.yul\":5722:5724   */\n      0x20\n        /* \"#utility.yul\":5717:5720   */\n      dup3\n        /* \"#utility.yul\":5713:5725   */\n      add\n        /* \"#utility.yul\":5706:5725   */\n      swap1\n      pop\n        /* \"#utility.yul\":5365:5731   */\n      swap2\n      swap1\n      pop\n      jump\t// out\n        /* \"#utility.yul\":5737:6156   */\n    tag_28:\n        /* \"#utility.yul\":5903:5907   */\n      0x00\n        /* \"#utility.yul\":5941:5943   */\n      0x20\n        /* \"#utility.yul\":5930:5939   */\n      dup3\n        /* \"#utility.yul\":5926:5944   */\n      add\n        /* \"#utility.yul\":5918:5944   */\n      swap1\n      pop\n        /* \"#utility.yul\":5990:5999   */\n      dup2\n        /* \"#utility.yul\":5984:5988   */\n      dup2\n        /* \"#utility.yul\":5980:6000   */\n      sub\n        /* \"#utility.yul\":5976:5977   */\n      0x00\n        /* \"#utility.yul\":5965:5974   */\n      dup4\n        /* \"#utility.yul\":5961:5978   */\n      add\n        /* \"#utility.yul\":5954:6001   */\n      mstore\n        /* \"#utility.yul\":6018:6149   */\n      tag_129\n        /* \"#utility.yul\":6144:6148   */\n      dup2\n        /* \"#utility.yul\":6018:6149   */\n      tag_57\n      jump\t// in\n    tag_129:\n        /* \"#utility.yul\":6010:6149   */\n      swap1\n      pop\n        /* \"#utility.yul\":5737:6156   */\n      swap2\n      swap1\n      pop\n      jump\t// out\n        /* \"#utility.yul\":6162:6261   */\n    tag_58:\n        /* \"#utility.yul\":6214:6220   */\n      0x00\n        /* \"#utility.yul\":6248:6253   */\n      dup2\n        /* \"#utility.yul\":6242:6254   */\n      mload\n        /* \"#utility.yul\":6232:6254   */\n      swap1\n      pop\n        /* \"#utility.yul\":6162:6261   */\n      swap2\n      swap1\n      pop\n      jump\t// out\n        /* \"#utility.yul\":6267:6415   */\n    tag_59:\n        /* \"#utility.yul\":6369:6380   */\n      0x00\n        /* \"#utility.yul\":6406:6409   */\n      dup2\n        /* \"#utility.yul\":6391:6409   */\n      swap1\n      pop\n        /* \"#utility.yul\":6267:6415   */\n      swap3\n      swap2\n      pop\n      pop\n      jump\t// out\n        /* \"#utility.yul\":6421:6560   */\n    tag_60:\n        /* \"#utility.yul\":6510:6516   */\n      dup3\n        /* \"#utility.yul\":6505:6508   */\n      dup2\n        /* \"#utility.yul\":6500:6503   */\n      dup4\n        /* \"#utility.yul\":6494:6517   */\n      mcopy\n        /* \"#utility.yul\":6551:6552   */\n      0x00\n        /* \"#utility.yul\":6542:6548   */\n      dup4\n        /* \"#utility.yul\":6537:6540   */\n      dup4\n        /* \"#utility.yul\":6533:6549   */\n      add\n        /* \"#utility.yul\":6526:6553   */\n      mstore\n        /* \"#utility.yul\":6421:6560   */\n      pop\n      pop\n      pop\n      jump\t// out\n        /* \"#utility.yul\":6566:6956   */\n    tag_61:\n        /* \"#utility.yul\":6672:6675   */\n      0x00\n        /* \"#utility.yul\":6700:6739   */\n      tag_134\n        /* \"#utility.yul\":6733:6738   */\n      dup3\n        /* \"#utility.yul\":6700:6739   */\n      tag_58\n      jump\t// in\n    tag_134:\n        /* \"#utility.yul\":6755:6844   */\n      tag_135\n        /* \"#utility.yul\":6837:6843   */\n      dup2\n        /* \"#utility.yul\":6832:6835   */\n      dup6\n        /* \"#utility.yul\":6755:6844   */\n      tag_59\n      jump\t// in\n    tag_135:\n        /* \"#utility.yul\":6748:6844   */\n      swap4\n      pop\n        /* \"#utility.yul\":6853:6918   */\n      tag_136\n        /* \"#utility.yul\":6911:6917   */\n      dup2\n        /* \"#utility.yul\":6906:6909   */\n      dup6\n        /* \"#utility.yul\":6899:6903   */\n      0x20\n        /* \"#utility.yul\":6892:6897   */\n      dup7\n        /* \"#utility.yul\":6888:6904   */\n      add\n        /* \"#utility.yul\":6853:6918   */\n      tag_60\n      jump\t// in\n    tag_136:\n        /* \"#utility.yul\":6943:6949   */\n      dup1\n        /* \"#utility.yul\":6938:6941   */\n      dup5\n        /* \"#utility.yul\":6934:6950   */\n      add\n        /* \"#utility.yul\":6927:6950   */\n      swap2\n      pop\n        /* \"#utility.yul\":6676:6956   */\n      pop\n        /* \"#utility.yul\":6566:6956   */\n      swap3\n      swap2\n      pop\n      pop\n      jump\t// out\n        /* \"#utility.yul\":6962:7237   */\n    tag_30:\n        /* \"#utility.yul\":7094:7097   */\n      0x00\n        /* \"#utility.yul\":7116:7211   */\n      tag_138\n        /* \"#utility.yul\":7207:7210   */\n      dup3\n        /* \"#utility.yul\":7198:7204   */\n      dup5\n        /* \"#utility.yul\":7116:7211   */\n      tag_61\n      jump\t// in\n    tag_138:\n        /* \"#utility.yul\":7109:7211   */\n      swap2\n      pop\n        /* \"#utility.yul\":7228:7231   */\n      dup2\n        /* \"#utility.yul\":7221:7231   */\n      swap1\n      pop\n        /* \"#utility.yul\":6962:7237   */\n      swap3\n      swap2\n      pop\n      pop\n      jump\t// out\n        /* \"#utility.yul\":7243:7620   */\n    tag_62:\n        /* \"#utility.yul\":7331:7334   */\n      0x00\n        /* \"#utility.yul\":7359:7398   */\n      tag_140\n        /* \"#utility.yul\":7392:7397   */\n      dup3\n        /* \"#utility.yul\":7359:7398   */\n      tag_58\n      jump\t// in\n    tag_140:\n        /* \"#utility.yul\":7414:7485   */\n      tag_141\n        /* \"#utility.yul\":7478:7484   */\n      dup2\n        /* \"#utility.yul\":7473:7476   */\n      dup6\n        /* \"#utility.yul\":7414:7485   */\n      tag_55\n      jump\t// in\n    tag_141:\n        /* \"#utility.yul\":7407:7485   */\n      swap4\n      pop\n        /* \"#utility.yul\":7494:7559   */\n      tag_142\n        /* \"#utility.yul\":7552:7558   */\n      dup2\n        /* \"#utility.yul\":7547:7550   */\n      dup6\n        /* \"#utility.yul\":7540:7544   */\n      0x20\n        /* \"#utility.yul\":7533:7538   */\n      dup7\n        /* \"#utility.yul\":7529:7545   */\n      add\n        /* \"#utility.yul\":7494:7559   */\n      tag_60\n      jump\t// in\n    tag_142:\n        /* \"#utility.yul\":7584:7613   */\n      tag_143\n        /* \"#utility.yul\":7606:7612   */\n      dup2\n        /* \"#utility.yul\":7584:7613   */\n      tag_40\n      jump\t// in\n    tag_143:\n        /* \"#utility.yul\":7579:7582   */\n      dup5\n        /* \"#utility.yul\":7575:7614   */\n      add\n        /* \"#utility.yul\":7568:7614   */\n      swap2\n      pop\n        /* \"#utility.yul\":7335:7620   */\n      pop\n        /* \"#utility.yul\":7243:7620   */\n      swap3\n      swap2\n      pop\n      pop\n      jump\t// out\n        /* \"#utility.yul\":7626:8049   */\n    tag_32:\n        /* \"#utility.yul\":7767:7771   */\n      0x00\n        /* \"#utility.yul\":7805:7807   */\n      0x40\n        /* \"#utility.yul\":7794:7803   */\n      dup3\n        /* \"#utility.yul\":7790:7808   */\n      add\n        /* \"#utility.yul\":7782:7808   */\n      swap1\n      pop\n        /* \"#utility.yul\":7854:7863   */\n      dup2\n        /* \"#utility.yul\":7848:7852   */\n      dup2\n        /* \"#utility.yul\":7844:7864   */\n      sub\n        /* \"#utility.yul\":7840:7841   */\n      0x00\n        /* \"#utility.yul\":7829:7838   */\n      dup4\n        /* \"#utility.yul\":7825:7842   */\n      add\n        /* \"#utility.yul\":7818:7865   */\n      mstore\n        /* \"#utility.yul\":7882:7960   */\n      tag_145\n        /* \"#utility.yul\":7955:7959   */\n      dup2\n        /* \"#utility.yul\":7946:7952   */\n      dup6\n        /* \"#utility.yul\":7882:7960   */\n      tag_62\n      jump\t// in\n    tag_145:\n        /* \"#utility.yul\":7874:7960   */\n      swap1\n      pop\n        /* \"#utility.yul\":7970:8042   */\n      tag_146\n        /* \"#utility.yul\":8038:8040   */\n      0x20\n        /* \"#utility.yul\":8027:8036   */\n      dup4\n        /* \"#utility.yul\":8023:8041   */\n      add\n        /* \"#utility.yul\":8014:8020   */\n      dup5\n        /* \"#utility.yul\":7970:8042   */\n      tag_51\n      jump\t// in\n    tag_146:\n        /* \"#utility.yul\":7626:8049   */\n      swap4\n      swap3\n      pop\n      pop\n      pop\n      jump\t// out\n\n    auxdata: 0xa26469706673582212204becaa1bf6025c93a642b16bf491645a782a92b9252394dac5f215b3b857893764736f6c634300081e0033\n}\n",
				"bytecode": {
					"linkReferences": {},
					"object": "608060405234801561000f575f5ffd5b50335f5f6101000a81548173ffffffffffffffffffffffffffffffffffffffff021916908373ffffffffffffffffffffffffffffffffffffffff160217905550600a600160405161005f9061010e565b908152602001604051809103902081905550600560016040516100819061016c565b908152602001604051809103902081905550600860016040516100a3906101ca565b9081526020016040518091039020819055506101de565b5f81905092915050565b7f7075626c69636174696f6e0000000000000000000000000000000000000000005f82015250565b5f6100f8600b836100ba565b9150610103826100c4565b600b82019050919050565b5f610118826100ec565b9150819050919050565b7f706565725f7265766965770000000000000000000000000000000000000000005f82015250565b5f610156600b836100ba565b915061016182610122565b600b82019050919050565b5f6101768261014a565b9150819050919050565b7f6f70656e5f6461746100000000000000000000000000000000000000000000005f82015250565b5f6101b46009836100ba565b91506101bf82610180565b600982019050919050565b5f6101d4826101a8565b9150819050919050565b61066b806101eb5f395ff3fe608060405234801561000f575f5ffd5b506004361061004a575f3560e01c80636258d1b51461004e5780637e564aeb1461006a578063a0fe927c1461009a578063f851a440146100ca575b5f5ffd5b610068600480360381019061006391906103ce565b6100e8565b005b610084600480360381019061007f9190610428565b6101d6565b604051610091919061047e565b60405180910390f35b6100b460048036038101906100af9190610428565b6101fd565b6040516100c1919061047e565b60405180910390f35b6100d261022a565b6040516100df91906104d6565b60405180910390f35b5f5f9054906101000a900473ffffffffffffffffffffffffffffffffffffffff1673ffffffffffffffffffffffffffffffffffffffff163373ffffffffffffffffffffffffffffffffffffffff1614610176576040517f08c379a000000000000000000000000000000000000000000000000000000000815260040161016d90610549565b60405180910390fd5b8060018360405161018791906105b9565b9081526020016040518091039020819055507fc73b0ceb71f780b48228f4259d159dd22611ee55308b66356c2b6e3e8af6161182826040516101ca929190610607565b60405180910390a15050565b5f6001826040516101e791906105b9565b9081526020016040518091039020549050919050565b6001818051602081018201805184825260208301602085012081835280955050505050505f915090505481565b5f5f9054906101000a900473ffffffffffffffffffffffffffffffffffffffff1681565b5f604051905090565b5f5ffd5b5f5ffd5b5f5ffd5b5f5ffd5b5f601f19601f8301169050919050565b7f4e487b71000000000000000000000000000000000000000000000000000000005f52604160045260245ffd5b6102ad82610267565b810181811067ffffffffffffffff821117156102cc576102cb610277565b5b80604052505050565b5f6102de61024e565b90506102ea82826102a4565b919050565b5f67ffffffffffffffff82111561030957610308610277565b5b61031282610267565b9050602081019050919050565b828183375f83830152505050565b5f61033f61033a846102ef565b6102d5565b90508281526020810184848401111561035b5761035a610263565b5b61036684828561031f565b509392505050565b5f82601f8301126103825761038161025f565b5b813561039284826020860161032d565b91505092915050565b5f819050919050565b6103ad8161039b565b81146103b7575f5ffd5b50565b5f813590506103c8816103a4565b92915050565b5f5f604083850312156103e4576103e3610257565b5b5f83013567ffffffffffffffff8111156104015761040061025b565b5b61040d8582860161036e565b925050602061041e858286016103ba565b9150509250929050565b5f6020828403121561043d5761043c610257565b5b5f82013567ffffffffffffffff81111561045a5761045961025b565b5b6104668482850161036e565b91505092915050565b6104788161039b565b82525050565b5f6020820190506104915f83018461046f565b92915050565b5f73ffffffffffffffffffffffffffffffffffffffff82169050919050565b5f6104c082610497565b9050919050565b6104d0816104b6565b82525050565b5f6020820190506104e95f8301846104c7565b92915050565b5f82825260208201905092915050565b7f4f6e6c792061646d696e000000000000000000000000000000000000000000005f82015250565b5f610533600a836104ef565b915061053e826104ff565b602082019050919050565b5f6020820190508181035f83015261056081610527565b9050919050565b5f81519050919050565b5f81905092915050565b8281835e5f83830152505050565b5f61059382610567565b61059d8185610571565b93506105ad81856020860161057b565b80840191505092915050565b5f6105c48284610589565b915081905092915050565b5f6105d982610567565b6105e381856104ef565b93506105f381856020860161057b565b6105fc81610267565b840191505092915050565b5f6040820190508181035f83015261061f81856105cf565b905061062e602083018461046f565b939250505056fea26469706673582212204becaa1bf6025c93a642b16bf491645a782a92b9252394dac5f215b3b857893764736f6c634300081e0033",
					"opcodes": "PUSH1 0x80 PUSH1 0x40 MSTORE CALLVALUE DUP1 ISZERO PUSH2 0xF JUMPI PUSH0 PUSH0 REVERT JUMPDEST POP CALLER PUSH0 PUSH0 PUSH2 0x100 EXP DUP2 SLOAD DUP2 PUSH20 0xFFFFFFFFFFFFFFFFFFFFFFFFFFFFFFFFFFFFFFFF MUL NOT AND SWAP1 DUP4 PUSH20 0xFFFFFFFFFFFFFFFFFFFFFFFFFFFFFFFFFFFFFFFF AND MUL OR SWAP1 SSTORE POP PUSH1 0xA PUSH1 0x1 PUSH1 0x40 MLOAD PUSH2 0x5F SWAP1 PUSH2 0x10E JUMP JUMPDEST SWAP1 DUP2 MSTORE PUSH1 0x20 ADD PUSH1 0x40 MLOAD DUP1 SWAP2 SUB SWAP1 KECCAK256 DUP2 SWAP1 SSTORE POP PUSH1 0x5 PUSH1 0x1 PUSH1 0x40 MLOAD PUSH2 0x81 SWAP1 PUSH2 0x16C JUMP JUMPDEST SWAP1 DUP2 MSTORE PUSH1 0x20 ADD PUSH1 0x40 MLOAD DUP1 SWAP2 SUB SWAP1 KECCAK256 DUP2 SWAP1 SSTORE POP PUSH1 0x8 PUSH1 0x1 PUSH1 0x40 MLOAD PUSH2 0xA3 SWAP1 PUSH2 0x1CA JUMP JUMPDEST SWAP1 DUP2 MSTORE PUSH1 0x20 ADD PUSH1 0x40 MLOAD DUP1 SWAP2 SUB SWAP1 KECCAK256 DUP2 SWAP1 SSTORE POP PUSH2 0x1DE JUMP JUMPDEST PUSH0 DUP2 SWAP1 POP SWAP3 SWAP2 POP POP JUMP JUMPDEST PUSH32 0x7075626C69636174696F6E000000000000000000000000000000000000000000 PUSH0 DUP3 ADD MSTORE POP JUMP JUMPDEST PUSH0 PUSH2 0xF8 PUSH1 0xB DUP4 PUSH2 0xBA JUMP JUMPDEST SWAP2 POP PUSH2 0x103 DUP3 PUSH2 0xC4 JUMP JUMPDEST PUSH1 0xB DUP3 ADD SWAP1 POP SWAP2 SWAP1 POP JUMP JUMPDEST PUSH0 PUSH2 0x118 DUP3 PUSH2 0xEC JUMP JUMPDEST SWAP2 POP DUP2 SWAP1 POP SWAP2 SWAP1 POP JUMP JUMPDEST PUSH32 0x706565725F726576696577000000000000000000000000000000000000000000 PUSH0 DUP3 ADD MSTORE POP JUMP JUMPDEST PUSH0 PUSH2 0x156 PUSH1 0xB DUP4 PUSH2 0xBA JUMP JUMPDEST SWAP2 POP PUSH2 0x161 DUP3 PUSH2 0x122 JUMP JUMPDEST PUSH1 0xB DUP3 ADD SWAP1 POP SWAP2 SWAP1 POP JUMP JUMPDEST PUSH0 PUSH2 0x176 DUP3 PUSH2 0x14A JUMP JUMPDEST SWAP2 POP DUP2 SWAP1 POP SWAP2 SWAP1 POP JUMP JUMPDEST PUSH32 0x6F70656E5F646174610000000000000000000000000000000000000000000000 PUSH0 DUP3 ADD MSTORE POP JUMP JUMPDEST PUSH0 PUSH2 0x1B4 PUSH1 0x9 DUP4 PUSH2 0xBA JUMP JUMPDEST SWAP2 POP PUSH2 0x1BF DUP3 PUSH2 0x180 JUMP JUMPDEST PUSH1 0x9 DUP3 ADD SWAP1 POP SWAP2 SWAP1 POP JUMP JUMPDEST PUSH0 PUSH2 0x1D4 DUP3 PUSH2 0x1A8 JUMP JUMPDEST SWAP2 POP DUP2 SWAP1 POP SWAP2 SWAP1 POP JUMP JUMPDEST PUSH2 0x66B DUP1 PUSH2 0x1EB PUSH0 CODECOPY PUSH0 RETURN INVALID PUSH1 0x80 PUSH1 0x40 MSTORE CALLVALUE DUP1 ISZERO PUSH2 0xF JUMPI PUSH0 PUSH0 REVERT JUMPDEST POP PUSH1 0x4 CALLDATASIZE LT PUSH2 0x4A JUMPI PUSH0 CALLDATALOAD PUSH1 0xE0 SHR DUP1 PUSH4 0x6258D1B5 EQ PUSH2 0x4E JUMPI DUP1 PUSH4 0x7E564AEB EQ PUSH2 0x6A JUMPI DUP1 PUSH4 0xA0FE927C EQ PUSH2 0x9A JUMPI DUP1 PUSH4 0xF851A440 EQ PUSH2 0xCA JUMPI JUMPDEST PUSH0 PUSH0 REVERT JUMPDEST PUSH2 0x68 PUSH1 0x4 DUP1 CALLDATASIZE SUB DUP2 ADD SWAP1 PUSH2 0x63 SWAP2 SWAP1 PUSH2 0x3CE JUMP JUMPDEST PUSH2 0xE8 JUMP JUMPDEST STOP JUMPDEST PUSH2 0x84 PUSH1 0x4 DUP1 CALLDATASIZE SUB DUP2 ADD SWAP1 PUSH2 0x7F SWAP2 SWAP1 PUSH2 0x428 JUMP JUMPDEST PUSH2 0x1D6 JUMP JUMPDEST PUSH1 0x40 MLOAD PUSH2 0x91 SWAP2 SWAP1 PUSH2 0x47E JUMP JUMPDEST PUSH1 0x40 MLOAD DUP1 SWAP2 SUB SWAP1 RETURN JUMPDEST PUSH2 0xB4 PUSH1 0x4 DUP1 CALLDATASIZE SUB DUP2 ADD SWAP1 PUSH2 0xAF SWAP2 SWAP1 PUSH2 0x428 JUMP JUMPDEST PUSH2 0x1FD JUMP JUMPDEST PUSH1 0x40 MLOAD PUSH2 0xC1 SWAP2 SWAP1 PUSH2 0x47E JUMP JUMPDEST PUSH1 0x40 MLOAD DUP1 SWAP2 SUB SWAP1 RETURN JUMPDEST PUSH2 0xD2 PUSH2 0x22A JUMP JUMPDEST PUSH1 0x40 MLOAD PUSH2 0xDF SWAP2 SWAP1 PUSH2 0x4D6 JUMP JUMPDEST PUSH1 0x40 MLOAD DUP1 SWAP2 SUB SWAP1 RETURN JUMPDEST PUSH0 PUSH0 SWAP1 SLOAD SWAP1 PUSH2 0x100 EXP SWAP1 DIV PUSH20 0xFFFFFFFFFFFFFFFFFFFFFFFFFFFFFFFFFFFFFFFF AND PUSH20 0xFFFFFFFFFFFFFFFFFFFFFFFFFFFFFFFFFFFFFFFF AND CALLER PUSH20 0xFFFFFFFFFFFFFFFFFFFFFFFFFFFFFFFFFFFFFFFF AND EQ PUSH2 0x176 JUMPI PUSH1 0x40 MLOAD PUSH32 0x8C379A000000000000000000000000000000000000000000000000000000000 DUP2 MSTORE PUSH1 0x4 ADD PUSH2 0x16D SWAP1 PUSH2 0x549 JUMP JUMPDEST PUSH1 0x40 MLOAD DUP1 SWAP2 SUB SWAP1 REVERT JUMPDEST DUP1 PUSH1 0x1 DUP4 PUSH1 0x40 MLOAD PUSH2 0x187 SWAP2 SWAP1 PUSH2 0x5B9 JUMP JUMPDEST SWAP1 DUP2 MSTORE PUSH1 0x20 ADD PUSH1 0x40 MLOAD DUP1 SWAP2 SUB SWAP1 KECCAK256 DUP2 SWAP1 SSTORE POP PUSH32 0xC73B0CEB71F780B48228F4259D159DD22611EE55308B66356C2B6E3E8AF61611 DUP3 DUP3 PUSH1 0x40 MLOAD PUSH2 0x1CA SWAP3 SWAP2 SWAP1 PUSH2 0x607 JUMP JUMPDEST PUSH1 0x40 MLOAD DUP1 SWAP2 SUB SWAP1 LOG1 POP POP JUMP JUMPDEST PUSH0 PUSH1 0x1 DUP3 PUSH1 0x40 MLOAD PUSH2 0x1E7 SWAP2 SWAP1 PUSH2 0x5B9 JUMP JUMPDEST SWAP1 DUP2 MSTORE PUSH1 0x20 ADD PUSH1 0x40 MLOAD DUP1 SWAP2 SUB SWAP1 KECCAK256 SLOAD SWAP1 POP SWAP2 SWAP1 POP JUMP JUMPDEST PUSH1 0x1 DUP2 DUP1 MLOAD PUSH1 0x20 DUP2 ADD DUP3 ADD DUP1 MLOAD DUP5 DUP3 MSTORE PUSH1 0x20 DUP4 ADD PUSH1 0x20 DUP6 ADD KECCAK256 DUP2 DUP4 MSTORE DUP1 SWAP6 POP POP POP POP POP POP PUSH0 SWAP2 POP SWAP1 POP SLOAD DUP2 JUMP JUMPDEST PUSH0 PUSH0 SWAP1 SLOAD SWAP1 PUSH2 0x100 EXP SWAP1 DIV PUSH20 0xFFFFFFFFFFFFFFFFFFFFFFFFFFFFFFFFFFFFFFFF AND DUP2 JUMP JUMPDEST PUSH0 PUSH1 0x40 MLOAD SWAP1 POP SWAP1 JUMP JUMPDEST PUSH0 PUSH0 REVERT JUMPDEST PUSH0 PUSH0 REVERT JUMPDEST PUSH0 PUSH0 REVERT JUMPDEST PUSH0 PUSH0 REVERT JUMPDEST PUSH0 PUSH1 0x1F NOT PUSH1 0x1F DUP4 ADD AND SWAP1 POP SWAP2 SWAP1 POP JUMP JUMPDEST PUSH32 0x4E487B7100000000000000000000000000000000000000000000000000000000 PUSH0 MSTORE PUSH1 0x41 PUSH1 0x4 MSTORE PUSH1 0x24 PUSH0 REVERT JUMPDEST PUSH2 0x2AD DUP3 PUSH2 0x267 JUMP JUMPDEST DUP2 ADD DUP2 DUP2 LT PUSH8 0xFFFFFFFFFFFFFFFF DUP3 GT OR ISZERO PUSH2 0x2CC JUMPI PUSH2 0x2CB PUSH2 0x277 JUMP JUMPDEST JUMPDEST DUP1 PUSH1 0x40 MSTORE POP POP POP JUMP JUMPDEST PUSH0 PUSH2 0x2DE PUSH2 0x24E JUMP JUMPDEST SWAP1 POP PUSH2 0x2EA DUP3 DUP3 PUSH2 0x2A4 JUMP JUMPDEST SWAP2 SWAP1 POP JUMP JUMPDEST PUSH0 PUSH8 0xFFFFFFFFFFFFFFFF DUP3 GT ISZERO PUSH2 0x309 JUMPI PUSH2 0x308 PUSH2 0x277 JUMP JUMPDEST JUMPDEST PUSH2 0x312 DUP3 PUSH2 0x267 JUMP JUMPDEST SWAP1 POP PUSH1 0x20 DUP2 ADD SWAP1 POP SWAP2 SWAP1 POP JUMP JUMPDEST DUP3 DUP2 DUP4 CALLDATACOPY PUSH0 DUP4 DUP4 ADD MSTORE POP POP POP JUMP JUMPDEST PUSH0 PUSH2 0x33F PUSH2 0x33A DUP5 PUSH2 0x2EF JUMP JUMPDEST PUSH2 0x2D5 JUMP JUMPDEST SWAP1 POP DUP3 DUP2 MSTORE PUSH1 0x20 DUP2 ADD DUP5 DUP5 DUP5 ADD GT ISZERO PUSH2 0x35B JUMPI PUSH2 0x35A PUSH2 0x263 JUMP JUMPDEST JUMPDEST PUSH2 0x366 DUP5 DUP3 DUP6 PUSH2 0x31F JUMP JUMPDEST POP SWAP4 SWAP3 POP POP POP JUMP JUMPDEST PUSH0 DUP3 PUSH1 0x1F DUP4 ADD SLT PUSH2 0x382 JUMPI PUSH2 0x381 PUSH2 0x25F JUMP JUMPDEST JUMPDEST DUP2 CALLDATALOAD PUSH2 0x392 DUP5 DUP3 PUSH1 0x20 DUP7 ADD PUSH2 0x32D JUMP JUMPDEST SWAP2 POP POP SWAP3 SWAP2 POP POP JUMP JUMPDEST PUSH0 DUP2 SWAP1 POP SWAP2 SWAP1 POP JUMP JUMPDEST PUSH2 0x3AD DUP2 PUSH2 0x39B JUMP JUMPDEST DUP2 EQ PUSH2 0x3B7 JUMPI PUSH0 PUSH0 REVERT JUMPDEST POP JUMP JUMPDEST PUSH0 DUP2 CALLDATALOAD SWAP1 POP PUSH2 0x3C8 DUP2 PUSH2 0x3A4 JUMP JUMPDEST SWAP3 SWAP2 POP POP JUMP JUMPDEST PUSH0 PUSH0 PUSH1 0x40 DUP4 DUP6 SUB SLT ISZERO PUSH2 0x3E4 JUMPI PUSH2 0x3E3 PUSH2 0x257 JUMP JUMPDEST JUMPDEST PUSH0 DUP4 ADD CALLDATALOAD PUSH8 0xFFFFFFFFFFFFFFFF DUP2 GT ISZERO PUSH2 0x401 JUMPI PUSH2 0x400 PUSH2 0x25B JUMP JUMPDEST JUMPDEST PUSH2 0x40D DUP6 DUP3 DUP7 ADD PUSH2 0x36E JUMP JUMPDEST SWAP3 POP POP PUSH1 0x20 PUSH2 0x41E DUP6 DUP3 DUP7 ADD PUSH2 0x3BA JUMP JUMPDEST SWAP2 POP POP SWAP3 POP SWAP3 SWAP1 POP JUMP JUMPDEST PUSH0 PUSH1 0x20 DUP3 DUP5 SUB SLT ISZERO PUSH2 0x43D JUMPI PUSH2 0x43C PUSH2 0x257 JUMP JUMPDEST JUMPDEST PUSH0 DUP3 ADD CALLDATALOAD PUSH8 0xFFFFFFFFFFFFFFFF DUP2 GT ISZERO PUSH2 0x45A JUMPI PUSH2 0x459 PUSH2 0x25B JUMP JUMPDEST JUMPDEST PUSH2 0x466 DUP5 DUP3 DUP6 ADD PUSH2 0x36E JUMP JUMPDEST SWAP2 POP POP SWAP3 SWAP2 POP POP JUMP JUMPDEST PUSH2 0x478 DUP2 PUSH2 0x39B JUMP JUMPDEST DUP3 MSTORE POP POP JUMP JUMPDEST PUSH0 PUSH1 0x20 DUP3 ADD SWAP1 POP PUSH2 0x491 PUSH0 DUP4 ADD DUP5 PUSH2 0x46F JUMP JUMPDEST SWAP3 SWAP2 POP POP JUMP JUMPDEST PUSH0 PUSH20 0xFFFFFFFFFFFFFFFFFFFFFFFFFFFFFFFFFFFFFFFF DUP3 AND SWAP1 POP SWAP2 SWAP1 POP JUMP JUMPDEST PUSH0 PUSH2 0x4C0 DUP3 PUSH2 0x497 JUMP JUMPDEST SWAP1 POP SWAP2 SWAP1 POP JUMP JUMPDEST PUSH2 0x4D0 DUP2 PUSH2 0x4B6 JUMP JUMPDEST DUP3 MSTORE POP POP JUMP JUMPDEST PUSH0 PUSH1 0x20 DUP3 ADD SWAP1 POP PUSH2 0x4E9 PUSH0 DUP4 ADD DUP5 PUSH2 0x4C7 JUMP JUMPDEST SWAP3 SWAP2 POP POP JUMP JUMPDEST PUSH0 DUP3 DUP3 MSTORE PUSH1 0x20 DUP3 ADD SWAP1 POP SWAP3 SWAP2 POP POP JUMP JUMPDEST PUSH32 0x4F6E6C792061646D696E00000000000000000000000000000000000000000000 PUSH0 DUP3 ADD MSTORE POP JUMP JUMPDEST PUSH0 PUSH2 0x533 PUSH1 0xA DUP4 PUSH2 0x4EF JUMP JUMPDEST SWAP2 POP PUSH2 0x53E DUP3 PUSH2 0x4FF JUMP JUMPDEST PUSH1 0x20 DUP3 ADD SWAP1 POP SWAP2 SWAP1 POP JUMP JUMPDEST PUSH0 PUSH1 0x20 DUP3 ADD SWAP1 POP DUP2 DUP2 SUB PUSH0 DUP4 ADD MSTORE PUSH2 0x560 DUP2 PUSH2 0x527 JUMP JUMPDEST SWAP1 POP SWAP2 SWAP1 POP JUMP JUMPDEST PUSH0 DUP2 MLOAD SWAP1 POP SWAP2 SWAP1 POP JUMP JUMPDEST PUSH0 DUP2 SWAP1 POP SWAP3 SWAP2 POP POP JUMP JUMPDEST DUP3 DUP2 DUP4 MCOPY PUSH0 DUP4 DUP4 ADD MSTORE POP POP POP JUMP JUMPDEST PUSH0 PUSH2 0x593 DUP3 PUSH2 0x567 JUMP JUMPDEST PUSH2 0x59D DUP2 DUP6 PUSH2 0x571 JUMP JUMPDEST SWAP4 POP PUSH2 0x5AD DUP2 DUP6 PUSH1 0x20 DUP7 ADD PUSH2 0x57B JUMP JUMPDEST DUP1 DUP5 ADD SWAP2 POP POP SWAP3 SWAP2 POP POP JUMP JUMPDEST PUSH0 PUSH2 0x5C4 DUP3 DUP5 PUSH2 0x589 JUMP JUMPDEST SWAP2 POP DUP2 SWAP1 POP SWAP3 SWAP2 POP POP JUMP JUMPDEST PUSH0 PUSH2 0x5D9 DUP3 PUSH2 0x567 JUMP JUMPDEST PUSH2 0x5E3 DUP2 DUP6 PUSH2 0x4EF JUMP JUMPDEST SWAP4 POP PUSH2 0x5F3 DUP2 DUP6 PUSH1 0x20 DUP7 ADD PUSH2 0x57B JUMP JUMPDEST PUSH2 0x5FC DUP2 PUSH2 0x267 JUMP JUMPDEST DUP5 ADD SWAP2 POP POP SWAP3 SWAP2 POP POP JUMP JUMPDEST PUSH0 PUSH1 0x40 DUP3 ADD SWAP1 POP DUP2 DUP2 SUB PUSH0 DUP4 ADD MSTORE PUSH2 0x61F DUP2 DUP6 PUSH2 0x5CF JUMP JUMPDEST SWAP1 POP PUSH2 0x62E PUSH1 0x20 DUP4 ADD DUP5 PUSH2 0x46F JUMP JUMPDEST SWAP4 SWAP3 POP POP POP JUMP INVALID LOG2 PUSH5 0x6970667358 0x22 SLT KECCAK256 0x4B EOFCREATE 0xAA SHL 0xF6 MUL TLOAD SWAP4 0xA6 TIMESTAMP 0xB1 PUSH12 0xF491645A782A92B9252394DA 0xC5 CALLCODE ISZERO 0xB3 0xB8 JUMPI DUP10 CALLDATACOPY PUSH5 0x736F6C6343 STOP ADDMOD 0x1E STOP CALLER "
				},
				"gasEstimates": {
					"creation": {
						"codeDepositCost": "328600",
						"executionCost": "infinite",
						"totalCost": "infinite"
					},
					"external": {
						"admin()": "2551",
						"getRewardValue(string)": "infinite",
						"rewardRules(string)": "infinite",
						"updateRewardRule(string,uint256)": "infinite"
					}
				},
				"methodIdentifiers": {
					"admin()": "f851a440",
					"getRewardValue(string)": "7e564aeb",
					"rewardRules(string)": "a0fe927c",
					"updateRewardRule(string,uint256)": "6258d1b5"
				}
			},
			"storageLayout": {
				"storage": [
					{
						"astId": 3,
						"contract": "contracts/RewardPolicy.sol:RewardPolicy",
						"label": "admin",
						"offset": 0,
						"slot": "0",
						"type": "t_address"
					},
					{
						"astId": 7,
						"contract": "contracts/RewardPolicy.sol:RewardPolicy",
						"label": "rewardRules",
						"offset": 0,
						"slot": "1",
						"type": "t_mapping(t_string_memory_ptr,t_uint256)"
					}
				],
				"types": {
					"t_address": {
						"encoding": "inplace",
						"label": "address",
						"numberOfBytes": "20"
					},
					"t_mapping(t_string_memory_ptr,t_uint256)": {
						"encoding": "mapping",
						"key": "t_string_memory_ptr",
						"label": "mapping(string => uint256)",
						"numberOfBytes": "32",
						"value": "t_uint256"
					},
					"t_string_memory_ptr": {
						"encoding": "bytes",
						"label": "string",
						"numberOfBytes": "32"
					},
					"t_uint256": {
						"encoding": "inplace",
						"label": "uint256",
						"numberOfBytes": "32"
					}
				}
			},
			"userdoc": {
				"kind": "user",
				"methods": {},
				"version": 1
			}
		}
	}
}